:020000022000DC
:0200000005C138
:040066000D940C02E7
:1001FC0025C040E04BBFF80158ED54BF2083089553
:10020C00FF24F8BE0091780005FD16C0F092600640
:10021C0008E1009370060FEF0A950023E9F70091AF
:10022C00680600FFE5CFE0E0F0E0079116910F3F84
:10023C0019F41F3F09F4DCCF0D942F010FE30DBF10
:10024C0001E20EBFCEEEDAE2E0E0EABF0F94E40882
:10025C00BAD0F09270060C9400004091CA01E22FC3
:10026C00F32F0093CA0104914093CA0108954A9553
:10027C001AF016950795FBCF08954A951AF0159527
:10028C000795FBCF0895FA92EA92DA92CA92BA9243
:10029C00AA929A928A927A926A925A924A92BA93B1
:1002AC00AA939A938A930895FF84EE84DD84CC8478
:1002BC00BB84AA84998488847F806E805D804C8006
:1002CC00BB81AA8199818881F0E0EC0FFD1FEF01C1
:1002DC0008953BB72BBFF8012091CA014093CA0186
:1002EC003DE930933400E8952093CA013BBF089553
:1002FC003091CF0137FDFCCF3BB72BBFF8012091DC
:10030C00CA0113E21093CA010A01E8952093CA01AD
:10031C003BBF0895E0E7F0E007E01FEF33D4119303
:10032C000A950023D1F71FB7F894E0E5F0E03BBF46
:10033C000081026000831FBFE1E5008101FFFCCF5B
:10034C0021E000E410E03DD01FB7F894E0E5F0E0C8
:10035C00FBBF00810E7F00831FBF08950DD0CCC55D
:10036C00E1E0EA9352C61ED09801800148C59A017B
:10037C00AB016DC501D0D7C50A011B01B901A8019C
:10038C00800191010895E1E0EA93E1C50BD030E2E0
:10039C00202D310D05C006D020E431E2200D311D99
:1003AC000D94B6080A01A9010895FCDF23EC31E293
:1003BC00F5CFF89420917900216009E701D0FFCFA7
:1003CC0010E00D94FF00279727E402EAF9DFA2DF83
:1003DC000FE00093730064D07894E0ED13D001FD2E
:1003EC0003C0F093B62102C03093B6219ED0012BEE
:1003FC0011F001E06ED4F1D03CD108839E01EDD018
:10040C00C9D4F9CFF1E0BED300810895BA93AA9371
:10041C009A93FA93EA933A922A921A920A927A93BC
:10042C006A935A934A933A932A931A930A930FB660
:10043C0018B629B63BB600E008BF74D00BBF40819C
:10044C005181228133818A014DD6DF0190E099BF21
:10045C000D931D932D933C930091A10807FBE6F798
:10046C000091A008FA01EA53FD4D00875BD078D0CB
:10047C004F7D2ED23BBE29BE18BE0FBE09911991DD
:10048C0029913991499159916991799109901990D2
:10049C0029903990E991F9919991A991B99118956F
:1004AC00009190000093C321009191000093C4210E
:1004BC00009192000093C521009193000093C621F6
:1004CC0008E00093410629E831E200EA18E01FD663
:1004DC000091A3080F7C00610093A30808953BD101
:1004EC0021D050D384D17ED14015510562057305BE
:1004FC00C1F344815581A681B781CA018F5F9F4F9B
:10050C00AF4FBF4F84839583A683B783DF01A40FBE
:10051C00B51F189639BF2C91D8012C9368D14F7DFB
:10052C001AD016C1E6ECF2E20895FCDF2BD318D0FA
:10053C0022D2E1F30480158066817781A001C3D1BA
:10054C000AD07FD30085053511F001E002C020D21E
:10055C0000E010E008954483558366837783089503
:10056C0040815181628173810895012B11F001E06A
:10057C0001C000E00093BA21E4EAF8E044DF0F7E0A
:10058C0000830081077F00830CE000934206E3EABE
:10059C0000810F7C00830DCFF80168D020532A30E6
:1005AC0008F027502295207F018100530A3008F073
:1005BC000750020F08959A938A932297C80194D0FA
:1005CC000CD093D08E0193D0FC01DCD21081100F93
:1005DC00108322968991999108958E010F5F1F4F78
:1005EC000895C9D223D3B02F20D31B2FB1C00F94A1
:1005FC005401C801D9010FC004E0402EFC0103DFF7
:10060C0010E0442D0F9443012AD0C3D10CEF400EBF
:10061C00AAF7019611970A2F0B2B71F7E5E00D94B1
:10062C0065019A938A93249783E090E018D0FE0199
:10063C00E80FF91FA7D2208344E00F943D010197E6
:10064C00AAF780E090E0FE01E80FF91F0FD0A1D1CE
:10065C000196843000E09007B4F32496BBCF202F92
:10066C002F702A300CF0295F205D08958BD22081E9
:10067C00089571D02997D80137D00881053531F408
:10068C0000E00093B2210093B32182D108810A3398
:10069C0099F781E08E0190E0080F191F26D0839501
:1006AC008930C0F39ADF23D09AD001838E01095F81
:1006BC001DD099BF0C938E010B5F18D0802F8E012B
:1006CC000D5F14D08CD0828303830091B2211091E2
:1006DC00B321048315832281438101811081010F91
:1006EC00020F040F299634C08E01F9CE1F4F54CF40
:1006FC003FD20058B1F00158D1F00A9571F0025078
:10070C0041F0045061F0085051F0005121F00052BA
:10071C0081F42BE40DC028E50BC02CE409C020E5C6
:10072C0007C000919021109191217BDF02C02EE235
:10073C0030D132D10DC50FD0D80101E010E00093BB
:10074C00B4211093B5218D0171D290E099BF0C9119
:10075C00E4E00D9466010D94550107D1380129018F
:10076C00A0E9B1E2890105D390E099BF0D931C93E8
:10077C00119735D002A113A1028313838201F9D200
:10078C002ED00483158302A113A106831783F301D2
:10079C00018104500183FD012AD02ED0401751074E
:1007AC006207730748F090D1FD01F0D01BD00416FE
:1007BC0015062606370620F408E0D7D101E00CC058
:1007CC001BD0401B510B620B730B7DD0FD0176D0FF
:1007DC00C6D07FD18201D2D2E8E00D946201FD0136
:1007EC009BBF08950080118022803380089544813E
:1007FC00558166817781089578D1139708958A93EE
:10080C002197802F02C00ED08A958823E1F70091A2
:10081C00B4211091B521012B09F404D069DF219684
:10082C00899108958E0102D2088308954CD100E07D
:10083C000093B92108958FDF49D2B4D0042F052B32
:10084C00062B072BA9F14F3F53076307730718F4C7
:10085C00CA01DB0104C08FEF90E0A0E0B0E0392FBB
:10086C007FDE17A102E0109F8AD0282F7BD077D093
:10087C0005C02CD275DE27D02BD01BD0AC01BD010E
:10088C0081509040A040B040242F252B262B272BA5
:10089C0099F2F80177D121918F01E091B721F0E025
:1008AC00E554FE4D3BBF4081241719F300E85DD1A0
:1008BC004FCF79D0415050406040704040875187B5
:1008CC006287738708954F5F5F4F6F4F7F4F089517
:1008DC004083518362837383089547D0A0E9B1E2CA
:1008EC0002C05AD035D4FD015DD045D0B9F190E0AD
:1008FC0039BF0D911C91119794DE2DE34AD037D05E
:10090C004F3F59076907790718F42A013B0105C0C5
:10091C0055246624772444244A94352D99BF4D914F
:10092C005D916D917C9113971091B72102E0109F0E
:10093C00FD0125D0242D16D0920111D058DE17D0F0
:10094C004419550966097709B9DFCFD0040D151D77
:10095C00261D371DC5D0FB2F0DD019F63DCF07EC4A
:10096C0011E2089507EC11E219940D945101FD0167
:10097C009BBF19C018D0452B462B472B089506D08A
:10098C00048115812681F8012CBF08955AD155C1D7
:10099C0025E500EA18E0CECE2DE0FBDF2AE000EAE8
:1009AC0018E00895EFD040855185628573850895D0
:1009BC00DCDF3801C90116C040A051A082010F5FD5
:1009CC001F4F00A311A3DBD00083FD0177D07BDF89
:1009DC004487558766877787F30101810A950183E0
:1009EC00FD0167DFA0E9B1E2F301CFD0002319F0DC
:1009FC00FD01C0DF09F7BED131F000E2B6D0F30142
:100A0C00C1D0FBD15AC060D02D01400C511CFD014E
:100A1C00B9D054D000841184228433840128022854
:100A2C000328D9F4752F0081118122813381242E62
:100A3C00D20190E0509699BF4D91BC91A42F17967E
:100A4C0099BF4D915D916C91FA016CBF622D47EC91
:100A5C0051E21995F3019BBFD4CF112422243324E6
:100A6C0000240A94041A150A260A370A0FEF0016F6
:100A7C00130623063306F0F4BA0147EC51E290E07A
:100A8C0039BF34D013970801222EF201D6D007813A
:100A9C0010852185F8012CBF8001222D19959FDE30
:100AAC000DD023D0040F151F261F371F19D057DF69
:100ABC00FB2F0FD0F301018106D08ECE44855585D6
:100ACC006685778508959BCE0091B72112E0019F32
:100ADC00089500A311A39487958796879787089507
:100AEC003C932E931E930E93089599BF0D911D91D7
:100AFC002D913C9108953FD0D9010091B62100234E
:100B0C0019F002E032D00FC00091B72190D047818C
:100B1C005085618540305040604011F400E1F2CFC7
:100B2C0027D0013011F090D013CE022F1B2F7ED086
:100B3C00FC0128D011811A9511830023A1F4009196
:100B4C00B921002311F000E4DDCF6BD029F010D0D7
:100B5C00083049F300E2D6CF01E00093B921FC0143
:100B6C0014D0B1DFE1CF04E0CDCF0093B8210895CC
:100B7C000091B82108950F945501C80108958C0176
:100B8C0055D0F20130E03BBF089530E03BBF01810E
:100B9C0008954091B921413031F020E42093B821DF
:100BAC00F801F3DF2BC104CF0F945401C801D90114
:100BBC000091B7211091B621112351F0002331F08F
:100BCC00013021F0063011F0073011F402E00DC0B5
:100BDC001091B821113051F42AD04481558166818D
:100BEC0040305040604021F404E0BFDF2DD016CDE2
:100BFC00022F1B2F1BD0402EFC01C1D012D029F08C
:100C0C00B7DF083099F300E2F0CF042D442019F03F
:100C1C000A9529F0E9CF00E0A8DF5FDEE7CF0BDE15
:100C2C00E5CF9D018C0199DDA6C08C01C4CC12E0EE
:100C3C00019FE0E9F1E205D0A5DF0089F189E02F01
:100C4C000895E00DF11D0895FC0130E03BBFD5C0C7
:100C5C0015D1D801C9018901E9DF502EE6DF402EFC
:100C6C00FD0194D011F000E22EC0052D552019F095
:100C7C000350E9F029C02AD00FEF401619F500E017
:100C8C000093B7217FDF3083318332833383348306
:100C9C00358336833783EFECF1E0008107FDFBCF22
:100CAC0040E2A5D11CD100E00093B6210DC0442038
:100CBC0019F400E00ED008C001E0401619F400E071
:100CCC000AD002C004E051DFFD01D5C0E0E9F1E239
:100CDC00089501D060CC10E048CCD0D02801C901D7
:100CEC008901A4DFA02F4BDF118112501183A33097
:100CFC00D9F40023D9F499DFA02FF20140D03AD0D7
:100D0C0011F000E233C00A2F085070F4DFDFA0931B
:100D1C00B72140E04BBF40834183428343834483EC
:100D2C0045834683478323C004E020C00130E1F7AC
:100D3C008C011FD0D801F20129D019F72091B721CD
:100D4C0032E0239FC3DF7DDF1DDF4089F189E42F73
:100D5C00428153814A175B0740F0B8DFA283B3830B
:100D6C00A683B783A2A3B3A302C008E0FEDEF20100
:100D7C0082C037CC02D0002308958C01DCCC05DF77
:100D8C000A950183089561DFE6E00895FEDE0250C6
:100D9C000183F0CFBA93AA934091BA21442319F45A
:100DAC0041E04093BA2141E04093B82140E050E04B
:100DBC004093B4214093B521D80149BF4C914423B1
:100DCC0059F04A9539F0425049F04A9549F0425051
:100DDC0049F00AC090DE0EC0DCDE0CC0E5DE0AC0B5
:100DEC0037DF08C07ADF06C024E02093B821F80171
:100DFC005BBF03D0A991B9910895018117CDB901B9
:100E0C00ECECF1E033DC28602083105F98018B015F
:100E1C000F94B608ECECF6DA077F00830895ABDE8E
:100E2C00A22FB091CA012CD056D007FDFDCF03E301
:100E3C000093CA013093C2019093C1018093C00109
:100E4C00A093C40105E326D0B093CA0181CC16D07F
:100E5C00D801C9012A0107C0FC0194DE2191CF0100
:100E6C008D01DDDF119682012FEF420E521E012BF8
:100E7C0099F7E6E001C087DF0D9464010D945301EE
:100E8C00EFECC0DA07FDFCCF008101FF02C006E3E6
:100E9C0001D008950093CA0121E00BEC11E091CA36
:100EAC009A938A93802F9091CA01EADF14D007FDA0
:100EBC00FDCF03E30093CA0100E03093C2013093ED
:100ECC00C1010093C0018093C40103950032C8F3A3
:100EDC009093CA017FCB30E00091CF0108958A93A3
:100EEC000FEFDEDFF9DF07FDFDCF8091CA0100E3D4
:100EFC00D1DF8093CA0194CC1C0108018A01CB017B
:100F0C00A001622F0BC0FA016BBF2691F8013ADEEB
:100F1C0021938F014F5F5F4F6F4F0197282F292B24
:100F2C0091F7C1010895AADFCA012B01D801B17054
:100F3C000AC09D0159D0FC0125DE0193CF01119609
:100F4C000FEF400E501E042D052999F792CF0F94E8
:100F5C004D0122975A013B018E84D8019924062D0C
:100F6C00072991F180E090E01DC00FEF0883098301
:100F7C00062D072969F0A817B90729F43DD0088375
:100F8C00062D072929F0A415B50511F435D00983D0
:100F9C00488159818C0120E030E00F947E0102964B
:100FAC009230E8F62C01AED08820F9F29C011CD0CE
:100FBC000883920119D009834881502F4F3F5F4F0E
:100FCC00B9F299249394D4CF992029F084DF07FDAA
:100FDC00FDCF48E10CD07FDF07FDFDCF4AE107D004
:100FEC002296EDE00D945E0101E00D94330100E0DA
:100FFC0010E020E00D946F010FEF600E701E119643
:10100C00F501C0DD01915F0108950F94490122970C
:10101C007A014B01AA88280139011170802F952D76
:10102C00D901801B910BA040B04007C055DF07FDD4
:10103C00FDCF45E2002D0F946F01082D092909F40D
:10104C004DC0BB24CC24DD24D394AA2071F0FC0128
:10105C00ABBF07911691088319834881512F4F3FDD
:10106C005F4F31F0BB24B39403C00FEF08830983A7
:10107C00082D0929A1F0481659066A067B0629F4A1
:10108C0036D00883082D092951F08C019D012AD0F6
:10109C00401651066206730611F429D00983488163
:1010AC0059818C019D010F947E018E5F9F4FAF4F34
:1010BC00BF4F0FEFC00ED01E0C2D0D2931F68C0139
:1010CC009D010050124020403040BB20002E09F002
:1010DC00ADCF02DF07FDFDCF44E2ACCF2296E1E1BC
:1010EC000D945A010F5F1F4F2F4F3F4F08950FEF75
:1010FC00800E901E07D0601E701EF7010BBF019171
:10110C007F01089501E0400E00E0501E089523DB9E
:10111C00F901D80190E0159699BF2C912F732C935F
:10112C009BBF458154812681222311F028E001C008
:10113C0020E0542B522BF80155832EE2268328E90C
:10114C00278324812860248304810061048300CBDD
:10115C00F80118DD418145FBDEF7208300E008959E
:10116C00BD01D801F90107C030E03BBF219139BF67
:10117C002D9341505040242F252BB1F7DB010895BE
:10118C0040E099BF4D9399B701501040204030403A
:10119C00402F412B422B432B99F708953BBF0791CE
:1011AC003BB799BF0D9399B7415050406040704088
:1011BC00042F052B062B072B89F708950EE2402EE2
:1011CC0002E1502E02E0602EF201362D6BBE4791EB
:1011DC00579167917691F201EC5FFF4F3F4F3BBF08
:1011EC00A791B7919691F201362DE95FFF4F3F4FD2
:1011FC003BBF079117913691F801012B032B11F08E
:10120C00CDDF03C08A019B01BBDF0AE0400E00E08A
:10121C00501E601EA201662D423452416240A0F263
:10122C0008952B010000C321000000008300000082
:10123C00402100421202010000FFFF0100B4010135
:10124C00B60101FF070000B90101BD010102000058
:10125C0000D1010100000003000000DB01010000CF
:10126C0000FF010000C00101C90101FF1F0000CCFB
:10127C000101000000000000000000000000000060
:10128C00C20100030000000000000000000000008C
:10129C0000000000000043214D217F217F215721B8
:1012AC0061216B217521000000000000010001008C
:0912BC0000FFFF00010000FF002B
:0400000320000000D9
:00000001FF
