:020000020000FC
:100000000C940D0118951895189518951895189534
:100010001895189518951895189518951895189578
:100020001895189518951895189518951895189568
:1000300018951895189518950C94640818951895A6
:100040001895189518951895189518951895189548
:100050001895189518951895189518951895189538
:100060001895189518951895189518951895189528
:100070001895189518951895189518951895189518
:100080001895189518951895189518951895189508
:1000900018951895189518951895189518951895F8
:1000A00018951895189518951895189518951895E8
:1000B00018951895189518951895189518951895D8
:1000C00018951895189518951895189518951895C8
:1000D00018951895189518951895189518951895B8
:1000E00018951895189518951895189518951895A8
:1000F0001895189518951895189518951895189598
:100100001895189518951895189518951895189587
:100110001895189518951895189518951895189577
:100120001895189518951895189518951895189567
:10013000189518950C9420061895189518951895EB
:100140001895189518951895189518951895189547
:100150001895189518951895189518951895189537
:100160001895189518951895189518951895189527
:100170001895189518951895189518951895189517
:100180001895189518951895189518951895189507
:1001900018951895189518951895189518951895F7
:1001A00018951895189518951895189518951895E7
:1001B00018951895189518951895189518951895D7
:1001C00018951895189518951895189518951895C7
:1001D00018951895189518951895189518951895B7
:1001E00018951895189518951895189518951895A7
:1001F0001895189540E04BBFF80158ED54BF308377
:1002000008954091CA01E12FFF270093CA0104918C
:100210004093CA0108950C94D40AFF24F8BE0FE25B
:100220000DBF01E20EBFC0E0D1E2E0E0EABF0E94F4
:10023000E00A002311F00E94740B0E9458030E94F0
:10024000DE0A0C940B014A9512F0000FE1F70895B5
:10025000149F102D059F100D049F002D110D089562
:100260004A951AF0000F111FFBCF08954A951AF016
:1002700016950795FBCF08952224349F302D259F96
:10028000300D169F300D079F300D249F202D310D0E
:10029000159F200D311D069F200D311D149F102D1F
:1002A000210D321D059F100D211D321D049F002DB3
:1002B000110D221D321D08954A952AF0000F111FBD
:1002C000221F331FF9CF08954A952AF036952795B6
:1002D00017950795F9CF0895002411241001E0E245
:1002E000EA9592F0001F111F221F331F001C111CE2
:1002F000221C331C041615062606370688F3041A3A
:10030000150A260A370AECCF001F111F221F331FC0
:10031000A001B10100951095209530950895EA92BD
:10032000DA92CA92BA92AA929A928A927A926A922D
:100330005A924A92BA93AA939A938A930895EE8412
:10034000DD84CC84BB84AA84998488847F806E8079
:100350005D804C80BB81AA8199818881F0E0EC0F9F
:10036000FD1FEF0108955DD079F410E018BF0091F2
:100370008221102F13951093822138BF0023A9F4F6
:1003800014E001E00C94740947D079F410E018BF30
:1003900000918321102F13951093832138BF0023E0
:1003A00021F414E002E00E94740908953AD049F45F
:1003B00014D000810A95008379F414E001E00C94D4
:1003C0007C0970D049F409D001810A95018321F498
:1003D00014E002E00E947C090895E2E8F1E230E0D6
:1003E0003BBF08950E949A01D801922F8FB7F894CD
:1003F0000BD0139511830FBF8D0159D001600C9361
:100400008FBFE4E00C94AA010FB7F894E6E8F2E29B
:1004100030E03BBF11810895003213402040330784
:10042000089530E0003043E014072307F8CF0E941E
:1004300095014AD0F6DF21F411E32ED010E305C078
:1004400031D039F513E328D012E329D0802F8FB6AD
:10045000F8948D01292F87DF99BF2C9110E01C9310
:1004600030D011812BD011832CD0128127D0128350
:1004700028D0138123D0138324D014811FD0148358
:10048000708681871ED010812170122B1C9313D08F
:100490008FBEE9E00C94A50102D0702E089502E011
:1004A0000C940101003213402040304008955BDF7E
:1004B00099BF0C9108958D01292F78CFFD019BBF25
:1004C0000895F2016BBE0895D801922F2A01662E7D
:1004D0000895102E532F622F402F477001E00E9485
:1004E0002301302F169416941694012D10E045E048
:1004F0000E94300120E01A5F462F0C94BA0220E0DF
:1005000033E000E233D001E231D002E22FD003E247
:100510002DD004E22BD005E229D006E227D007E255
:1005200022D008E120D009E11ED00AE11CD00BE165
:100530001AD00CE118D00DE116D008E714D009E765
:1005400015D004E113D007E111D005E108D006E190
:100550000DD002E70BD003E102D002E1BACFFEDFFB
:1005600020E030E00895FADF28E1FBCFF7DF20E05C
:1005700033E008950E949A01D801922F232F0A0197
:1005800080E0482F01E010E00E943001122F10237C
:1005900041F050E0FD01392FE80FF51F351F3BBF3B
:1005A000008A8395883068F310FA4EF411FAFD0141
:1005B0009BBF16F4258301C02683218303C0FD0160
:1005C0009BBF2283E4E00C94AA01502F0695069568
:1005D000069510E045E00E94300120E01A5FF80126
:1005E0002BBF108510955770452F01E00E94230105
:1005F000102311F001E0089500E008950E949A018F
:100600002797D801922FFA016BBF04810C830581D3
:100610000D8306810E8340815181628173814883FD
:1006200059836A837B83A03A28E0120719F410E10A
:1006300003E028C0A03B120711F410E2F9CFA03A62
:1006400029E0120719F410E104E01CC0A03B1207D6
:1006500011F410E2F9CFA03A2AE0120719F410E1E0
:1006600005E010C0A03B120711F410E2F9CFA03A48
:100670002BE0120711F410E104C0A03B1B4019F459
:1006800010E206E0E6D0AE016AB78D01292F0E9484
:1006900088092796E4E00C94AA010C94BF090E94F3
:1006A0009A01DA01962F0E94C90999BF0C93F2CFE3
:1006B0009A938A9321970E9452090E947F0200EA2E
:1006C00018E020E0E9ECF2E230E0A8D00DE413E01D
:1006D00020E0ECECF2E230E0A1D00FE413E020E007
:1006E000E3E8F2E230E09AD04DE451E260E000EA63
:1006F00018E020E083DF0E94A7069ED040E453E08C
:100700003FEF00E816E020E00E94BA0248E550E022
:100710003FE300E616E089D048E550E033E000EE24
:1007200017E083D048E150E034E082D032E07BD063
:1007300048E150E031E07CD038E075D0E2EAF0E00A
:10074000FBBF008101600083789400E311E220E0A8
:100750000E941A0B58D200E038DF002391F010E01D
:1007600018BF009184210C3C61F401E0088300E093
:1007700008BF1091852100E008BF10934121F3D1FB
:1007800003C000E00883FDD102E01FDF802F01C01D
:10079000FCD1909168069F731091E80700E4109FC8
:1007A00090290881002319F00A9559F1F2CF182FEA
:1007B000092F61D0992321F090938406EAD10CC0CF
:1007C00028D00F7010E018BFB8D123D00295007F59
:1007D00010E018BF0093850610E018BF009141217A
:1007E00010E018BF2091402110E018BF222319F01B
:1007F0000F3F79F602C0002359F2DCD101E00883F3
:10080000C8CF90938406AE016AB7182F092F8ED0F7
:10081000C0CF10E018BF0091402108953BBF008376
:1008200011832283089500E016E020E00C94BA02C0
:10083000FADF40E051E0089512E003E00AD009E356
:1008400011E0009366081093670807E000934008E2
:1008500008950C94740911E004E0FBDF00E513EC4B
:10086000009326091093270907E00093000901E08F
:100870000093060908959A938A9354D1208120FF0A
:1008800011C020812160208320E028BF30914221C7
:10089000031721F420E028BF0093432120E028BF64
:1008A0000093422120E028BF3091442120E028BF5E
:1008B0004091432120E028BF842F8327282F242321
:1008C000832336D14581422B4583112319F01A9594
:1008D00021F004C0022F1ED101C01AD100E008BFD0
:1008E000109143218823D1F01123C1F400E008BF07
:1008F0002091452100E008BF4091412150E04E5F2A
:100900005F4F652F09D1E40FF51F361F3BBF2083D2
:100910000FD101810395018300E0058300E008BF4A
:100920001093442120D18991999108950E949501B5
:10093000802F712E2A01662EF5D0008100FF11C094
:1009400000810160008300E008BF109146218117FB
:1009500021F400E008BF8093472100E008BF8093A6
:10096000462100E008BF1091482100E008BF209117
:10097000472138BF822E8126082D02238122D8D01C
:100980001185102B1187772009F4DAD000E008BF19
:1009900010914A21E8D0112341F4882009F49EC027
:1009A000B2D0E1D0112309F099C000E008BF7091E6
:1009B000492110E018BF00914C2110E00E5F1F4F3D
:1009C000212F220F220B44E851E260E0400F511F1B
:1009D000621FFA016BBF0081701771F4A9D0048502
:1009E00003950487102F23851217C9F400E00487AC
:1009F000022F0395038713C0D2D008BF00E18AD02D
:100A000088EB9BE0A8D00FEF0093850680ED97E080
:100A1000A2D000E00093850688EE93E09CD0EED053
:100A200000E008BF20914B21121720F505E510E0EA
:100A300018BF8DD081D005E883D00AEA88D005E5BB
:100A40007CD080ED97E087D003E864D08CED95E012
:100A500082D072D08CED95E07ED005E56ED072D05C
:100A60009ED001E04BD087D08CD000E0F2016BBE6D
:100A7000008341C000E008BF10914C21112359F5BB
:100A800075D088EE93E067D0A0E000E008BF109139
:100A90004B21A11700F56AD050D080E991E05BD0DE
:100AA0008A2F90E00296692F37D0E80FF91F361F82
:100AB0003BBF008142D0072D772019F00A9521F025
:100AC00008C000813DD005C0008122D088E592E0B9
:100AD00042D0A395DACF4FD011D007C0072D772091
:100AE00021F00A9511F4082F13D00DD000E008BFB3
:100AF0001093482138D0E9E00C94A50110E018BF0C
:100B000000934A21089500E008BF109147210895FD
:100B10000C945C070C94CA07660F660BE4E8F1E2DC
:100B200030E0089590E0ECE4F8E030E03BBF089559
:100B3000E0E4F1E29BBF08950AEA00938406089579
:100B40000E94CA070E944C080023E1F70895009311
:100B5000840684EC99E005E315E001501040E9F7C4
:100B60000197C9F7089500E008BF089500E008BFA5
:100B700000930008089500E010E018BF0093492199
:100B8000089510E018BF0093412103D010E018BF72
:100B900062CE0FE010E018BF00934021089501E0FD
:100BA00010E018BF00934B2100E010E018BF009345
:100BB0004C2108950E949B010CEC10E018BF00939B
:100BC00084211CD000E008BF10938521CCDF80E099
:100BD00090E00E944F06A0E004E811E220E0080F38
:100BE000191F2A1F0E946D0627D00E948D0680962D
:100BF0008F3F9A0770F3E3E00C94AB0100E008BF6D
:100C00001091412108950E949B0180E090E0182FEF
:100C10001F71212F11D0122F0E943B06A0E0E4E8A3
:100C2000F1E230E0E80FF91F3A1F3BBF0083019665
:100C30008F3F9A0760F3DFCF45E08C010C943601BB
:100C40003A932A931A930A932FB738B700E008BF54
:100C500010914021169510934021109140211123AD
:100C600019F481DF0093000938BF2FBF0991199152
:100C70002991399118958A93212F56D017FDFDCFD0
:100C80001BD021D08091CA0106E01AD08093CA01FE
:100C90000091C40102C08093CA0189910895EFECCC
:100CA000F1E030E03BBF008107FDF9CF008101FF9B
:100CB00002C006E343D0089510E045E00C943001F3
:100CC00040D00C94FA002F71022B20E02093C20137
:100CD0001093C1010093C00108955091CA01409141
:100CE000CF0147FDFCCF33E33093CA0130E010D091
:100CF00040E04093C001F8012BBF61912BB78F01F9
:100D00006093C40143954032A0F35093CA01089503
:100D10003093C2013093C10108958A9305D017FD25
:100D2000FDCF07D005E303C01091CF010895C8DFC0
:100D3000B2CFC2DFCADF8091CA01089502D020E09D
:100D4000C0CF0093CA0131E00BEC11E00895B2D09E
:100D50002597DE019AB705E010E01A931A931A93CB
:100D60000A9311D18D01292F0E94020B09E0FD0188
:100D70009BBF028304E099BF0C938D01292F0F5F65
:100D80001F4F2F4FF8012BBF40814C7940834160AA
:100D9000408340E0FD019BBF438340E2F8012BBF4D
:100DA00000810076003409F445E110E0042F342F6F
:100DB000307F19F002950F7001C014E0302F3C70A5
:100DC00019F00695069501C01E5F01FB0EF0139504
:100DD00007E0011B073018F40295007F01C000E70F
:100DE000FD01392FEC5FFF4F3F4F3BBF10811F7854
:100DF000102B1083AD01692F00E213E020E00E9468
:100E0000170200E213E020E00E94F20111E003E08B
:100E10000E9474090AEA15E0009326081093270837
:100E200012E000E00E94740900EC00938001009140
:100E3000D307077C08610093D30701E000930608FD
:100E40002596E4E00C94AA0135D0D801922F8A01AE
:100E500020E030E04FED58EF62E070E00E943C018E
:100E600099BF4D915D916D917C91400F511F621F13
:100E7000731F7C936E935E934E9340E05FE160E05E
:100E800070E099BF0D911D912D910C9110E0000F14
:100E9000111F400F511F671F771FE5ECF2E230E092
:100EA0003BBF4083518362837383FA016BBF079119
:100EB0001691C7CF0C949A01FDDF002311F410E0C6
:100EC00001C011E010930008E4E5F1E230E000FB1E
:100ED00026F43BBF4081518101C055D0ACE8B2E25D
:100EE00090E054D001FB26F43BBF4281538101C006
:100EF0004AD0AEE8B2E290E049D002FB26F43BBF14
:100F00004481558101C03FD0A0E9B2E290E03ED0DB
:100F100003FB26F43BBF4681578101C034D0A2E9D0
:100F2000B2E290E033D004FB26F43BBF408551850C
:100F300001C029D0A4E9B2E290E028D005FB26F454
:100F40003BBF4285538501C01ED0A6E9B2E290E0C6
:100F50001DD006FB26F43BBF4485558501C013D048
:100F6000A8E9B2E290E012D090E007FB26F43BBF84
:100F70000685178502C000E010E0ECE8F2E29BBFB6
:100F8000068717875ECF40E050E0089599BF4D93E4
:100F90005C9308958A93802F7FD0002309F06DC061
:100FA000082F0378033849F46AD049ED51E361E032
:100FB00070E06CD000E81DE458C0082F05780538B3
:100FC00049F45DD049E55FE761E070E05FD010E78C
:100FD000748B4CC040E051E260E070E080FB26F48E
:100FE00052D008E815E141C081FB46F448D048E8FA
:100FF00056E360E04BD002EE10E437C082FB46F4CB
:101000003ED04AE657E760E041D000E717E12DC047
:1010100083FB26F438D00AE616E527C084FB46F4A5
:101020002ED04AED5EE860E031D00AEE18E21DC035
:1010300085FB46F424D044EC57EB60E027D008E170
:101040001EE113C086FB46F41AD04CED55ED60E06E
:101050001DD00EE614E209C087FB7EF410D04AE4EE
:101060005AEF60E013D00FE817E3048B158B768BF3
:10107000778B01E0008F0093000889910895ECE8D8
:10108000F2E230E00895ECE8F2E230E03BBF408B62
:10109000518B628B738B089500E008BF2091A022D2
:1010A0003091A12200E008BF232B59F400E008BFD3
:1010B0002091A2223091A32200E008BF232B09F443
:1010C00001E011E001270895DA92CA92BA92AA9239
:1010D0009A928A927A926A925A924A92BA93AA936E
:1010E0009A938A93FA93EA933A922A921A920A92DC
:1010F0007A936A935A934A933A932A931A930A9348
:101100007FB6A8B6B9B6CBB6DCB600E008BF882477
:1011100099240CE8402E02E2502E00E0602EF201ED
:101120000BBF048915894689578964897589672B9E
:10113000B1F566897789672B91F580E0082F10E07B
:1011400020E030E0482F50E060E0440F551FD2010E
:1011500090E0A40FB51F911F99BF4D915C9199B775
:10116000A150B0409040452BB1F099BF4D911C90DB
:10117000042E42E00E945C01A801820120E0040FDD
:10118000151F261F075E1F4F2F4FA0015DDE000FAA
:10119000111F800E911E83958830B0F5CFCF0417B4
:1011A000150761F160E0008D10E0013000881188C2
:1011B0002288338859F4040E151E211EF0012BBE1F
:1011C000069145E00E94300148010EC0440F551FB2
:1011D000661F040E151E261EF0012BBE87909690EA
:1011E000880C991C880C991CECE8F2E26BBE06890D
:1011F00017890F5F1F4F068B178B06C0868A878A59
:10120000848A858A809200080FB7F8948092380308
:10121000909239030FBFDCBECBBEB9BEA8BE7FBE65
:10122000099119912991399149915991699179912E
:101230000990199029903990E991F99189919991A2
:10124000A991B99149905990699079908990999014
:10125000A990B990C990D9901895083029F03ED03E
:101260002081202B208306C002E00093520033D05F
:10127000086000831FBF089502E0EFDFE1E5F0E0C2
:10128000FBBF008101FFFACF1FB7F89408E8048381
:10129000E0E50081006100831FBF0091510004FB65
:1012A000E6F70895E0E7F0E030E007E01FEF3BBF2E
:1012B00011933BB70A95D1F731E001E408D0DCDFA8
:1012C00034E000E404D007D00E7F0083D3CF10E0D9
:1012D00020E00C94FA0002D0008108951FB7F89422
:1012E000E0E5F0E0FBBF08952FB7F894109509D022
:1012F000012300832FBF08952FB7F89402D0012B4C
:10130000F8CF50E0E0E7F0E0E00FF51F5BBFE4CF7F
:10131000FAD03CD005810F730583FA016BBF25819C
:1013200074810681002311F008E001C000E0722BF7
:10133000702BEA2FF12F9BBF758318D0FA016BBF7A
:1013400005D02DD00AD0E4E00C94AA01408151814F
:10135000628173818D01292F0895FD019BBF048156
:1013600008600483048100610483089500E018E4A8
:1013700028EE31E03A932A931A930A93089506D0FF
:10138000518155FBE6F7308300E00895F8012BBF4B
:101390000895FCDF418147FBE6F7008108950E9434
:1013A00091012397088319832A83CA01DB01888866
:1013B0009988AA88BB8843E095D00801190146E1C5
:1013C00091D0A801E881F9813A813BBF048102FDF7
:1013D00006C0369427941794079456954795081697
:1013E00019062606370628F084179507A207B207C4
:1013F00010F400E06CC0048102FD04C0880F991F46
:10140000AA1FBB1F55246624772444244A9463D022
:101410008401950176D0A801B90109EFC02E4415C9
:1014200055056605770568F0440C551C661C771C4D
:101430000DEFC01614F4689440F8C39407E0C0168A
:1014400074F34C2D4D5F4AD008011901CC200AF5E8
:1014500043E044D0801A910AA20AB30A0EEFC016E4
:1014600094F44DEF4C19840195010E945C0133D036
:101470007695679557954795040F151F261F371FBB
:101480002AD03FD00DC08001910130D0A001B10120
:10149000F8CFC801D9012AD01ED033D00150104056
:1014A000E12FEF70C29440EFC422EC29A881BF2F36
:1014B0009A81A95FBF4F9F4F99BFEC93A881B981D3
:1014C0009A81AA5FBF4F9F4F99BF0C9301E023966B
:1014D000E1E10C94A101AC01BD0108958C019D01D5
:1014E0000C945C01840195010C94640105D0080DF5
:1014F000191D2A1D3B1D08953695279517950795AB
:1015000008950C946C010E949A01D801922F0895BD
:101510000E948F014A01A62E8F859889A989BA89D0
:101520004424552466247724242F252B262B29F4A4
:1015300000E010E020E030E033C00130140549F154
:101540000230104031F10FEF1FEF2FEF3FEF28C0B7
:1015500000E0F401ABBE4191ABB64F0150E0E9ECC5
:10156000F2E20BBFC080D180E2800381148125812B
:10157000F8012CBF86012E2D1995112322F301E0CD
:10158000400E00E0501E601E701E81509040A04032
:10159000B040082F092B0A2B0B2BD1F682019301A7
:1015A000E3E10C949F0108952297C80188839983F1
:1015B000AE016AB701E00E94D30AF8CF0C940B0188
:1015C00001E00895002E042F488159816A817B81B2
:1015D000302E002D07C00F5F1F4F2F4F415050403E
:1015E00060407040342F352B362B372B31F0F8010B
:1015F0002BBF0080031479F703C000E010E020E067
:1016000024960895282E042E488159816A817B8171
:10161000F801322F07C03BBF01923BB74150504009
:1016200060407040142E152A162A172AA1F7822D21
:10163000249608952397AE014D5F5F4F6AB74883A4
:1016400059836A83AE016AB76A935A934A932A937D
:101650001A930A9341E050E060E001E61FE020E0C9
:101660000E94C90B239608959A938A932197C801E3
:101670000F3F0FEF9007A1F0888301E010E01A936D
:101680001A931A930A93AE014C5F5F4F6AB70E9498
:10169000880A013010402040304011F48C0102C013
:1016A0000FEF1FEF219689919991089540E099BF1E
:1016B0004D9399B70150104020403040402F412BAE
:1016C000422B432B99F708953BBF07913BB799BF36
:1016D0000D9399B74150504060407040042F052B46
:1016E000062B072B89F708950CEE402E0EE1502EA5
:1016F00000E0602EF201362D6BBE47915791679145
:101700007691F201EC5FFF4F3F4F3BBFA791B7913E
:101710009691F201362DE95FFF4F3F4F3BBF079196
:1017200017913691F801012B032B11F0CDDF03C087
:101730008A019B01BBDF0AE0400E00E0501E601EE4
:10174000A201662D40305F416040A0F20895F8018B
:101750002BBF5081541741F051912BB78F01552366
:10176000B1F700E010E020E00895F801322F03C047
:10177000EF5FFF4F3F4F3BBF40814423C9F7AF01AD
:10178000632F70E0401B510B620B70408A019B017C
:1017900008950E948F01ED97FE013AB73BBFFF9677
:1017A00085849684A784FE01FF96C088D188E2884C
:1017B0000A871B872C874D875E876F8700E00C8F19
:1017C0000D8F8E010A5F1F4F2AB7088319832A8362
:1017D00048805980622E00E1400E00E0501E601EDD
:1017E0008E010B5D1F4F2AB70B831C832D8344C0D2
:1017F00075E2212F2BD2F5D1FAD1828D938DE6D1CE
:10180000801B910BE881F9813BBF04891589801BFE
:10181000910B02891389801B910B048D02FD03C07B
:10182000CED109F458C0D2D11A930A934D815E816A
:101830006F810A811B812C812ED209F04CC0D7D137
:101840004489558930E3BDD109F445C0D0D102891E
:1018500013891A930A93EA81FB813C813BBF42853D
:10186000538564858F01232F16D2A9F5C0D1048D2D
:1018700002FF02C0A4D179F19FD1002329F40C8D7D
:101880001D8DED96E5E1B5C20532D9F4FCD20E8B83
:101890000F8B088F098F0A8F0B8F60E070E001E0DB
:1018A000800E911EA11E88D1005249F00350D1F044
:1018B0000850A1F00250A1F00350B1F017C06160D0
:1018C000EECF0191ABB64F01302F088119812A81EB
:1018D000B0D211238AF60FEF1FEFD3CF6260DFCFB4
:1018E0006460DDCF6860DBCF6061D9CF00810A32F0
:1018F00071F447D108A319A308A1112332F411955B
:101900000195104008A319A364607ED10FC018A3ED
:1019100019A30AC048A159A14F3F0FE7500719F07A
:1019200039D188A399A370D13ED1A0F345D10E320D
:1019300021F00FEF0E8F0F8F18C066D13DD10A3204
:1019400029F41FD10E8F1F8F5FD10FC07E8F7F8F25
:101950000AC04E8D5F8D4F3F0FE7500719F01AD127
:101960008E8F9F8F51D11FD1A0F36AA37BA321D16A
:10197000408150E00CE711E220E00E94A70B012B10
:10198000022B29F016D10191ABB64F0101C000E046
:101990000CA3083631F410D1083619F402E60CA372
:1019A00020D10B811C812D810B8B1C8B2D8B01D1A8
:1019B0003080032D085509F457C00B50A1F00A954B
:1019C000D9F00550C9F0065009F44EC00A9509F443
:1019D00078C0035009F482C0025009F445C0035096
:1019E00009F442C0ADC0F7D0BBD00D901D90CDD052
:1019F000212F1DD10082FFCE03D1B2D011F4A6D089
:101A000006C0B3D0BBD0A12FAA0FAA0BBA2FF4D017
:101A100029F4A92FAA0FAA0BBA2F07C0123629F44E
:101A2000982F990F990BA92FB92FBB231AF4F6D031
:101A30007DE20AC0048D01FF03C0F0D07BE204C048
:101A400000FF03C0EBD070E2FFD0C0D0212FF3D055
:101A5000E0D0CDD080839183A283B383332D0881DE
:101A600019812A811AD1C7CECBD019F479D06ED082
:101A70000FC0013739F477D02D913D916CD07ED0D5
:101A8000D90106C00A366FD0B9F378D0A0E0B0E033
:101A9000B3D019F0123619F490E0A0E0B0E0048D54
:101AA00003FFD3CFB5D189F2032D0062083769F661
:101AB000B5D070E3C9D0B2D08A01252FB8D030821A
:101AC000C4CF61D04B815C816D81A3D070E08FD099
:101AD000008311832283738338E7C1CF54D087D02A
:101AE00002871387248783D0008D518D028413844D
:101AF000248455232AF48001222D0E94B50B1CC09A
:101B0000252F220F220B2A932A935A930A9340E0FF
:101B100050E08001222D0E94E20A302F312B322B1F
:101B200039F0A80164D002851385401B510B03C016
:101B30005ED0408D518D8A015AD0028B138B5BCEC3
:101B40004AD0332009F454CE732D53CE04D01DD087
:101B5000CA01DB0108954D915D916D917D910895CC
:101B600007D099BF089504D099BF0D911D91089594
:101B7000F601EBBEA081B1819281089506D0C80123
:101B80000895F1DF02C0EFDF2D9199B7A083B183F3
:101B90009283089590E00AE010E00E942801800FEF
:101BA000911FC097089505D08081082F00530A30F7
:101BB0000895F401ABBE0895FCDF0081089530E282
:101BC000AC018F012A8145D0012B0895F2016BBE33
:101BD000008111810895FADFC80101968083918305
:101BE000089501E0800E00E0901EA01E0895E88197
:101BF000F9813A813BBF0895FADF168D18360895B2
:101C0000F6DF068D0C36089501E0800E971EA71EA4
:101C10000895EDDF4287538764870895ECD04081B3
:101C200051818A010F5F1F4F00831183089503D0F4
:101C3000FA016BBF0895220F220B4B815C816D81ED
:101C4000400F511F621F08958A01252FF0DF708316
:101C500008950E94960121973883D801922F3A0166
:101C60004424552404C001E0400E00E0501E4614F8
:101C7000570401E010E05CF41A930A93AE014E5F42
:101C80005F4F6AB78D01292F06D069F3FCD02196EA
:101C9000E8E00C94A601FAD097CF0E948F01259717
:101CA00028013901F8012BBF0585168527850A8390
:101CB0001B832C830FE6701611F408E007C0032F76
:101CC0000062083711F00AE001C000E110E008836B
:101CD000198308E1802E992480819181A28133812A
:101CE000B32F44E6741619F049E6741649F4332309
:101CF0003AF49095A095B09581959F4FAF4FBF4F07
:101D000087D021F4008D118D012B29F10FEF800E6A
:101D1000901E74D0405D4A3318F0072D0155400FD6
:101D2000292D220F220BCA80DB80EC80C80CD91C25
:101D3000E21EF601EBBE408361D0C801D901012B40
:101D4000022B032B41F057D00285138524850C15F7
:101D50001D052E05D8F2088119810830104071F454
:101D60004AD0048D03FF0AC058D00081003331F0FF
:101D70000FEF800E901E40E350D0408308E110E04A
:101D80000819190938D0028B138BA92CAA0CAA08A0
:101D90004A815B816C81480D591D6A1D42875387BA
:101DA0006487408D518D0417150744F4401B510B77
:101DB000448B558B048D0F7E048F19C05523BAF4C4
:101DC000248D2471203199F4828C938C408951891F
:101DD000841A950A44895589841A950A801A910AA9
:101DE00001E0801600E0900614F0848A958A25961A
:101DF000EFE00C949F01F2016BBE08954881598178
:101E0000652F660F660B762F8C019D010C946C017B
:101E1000082F092B0A2B0B2B0895A92CAA0CAA0812
:101E20000A811B812C81080D191D2A1DF8012BBF69
:101E300008950E949A01D801922FA95FBF4F9F4F2A
:101E400093DE2C9199B7A950B0409040FD019BBF03
:101E5000048015802680F0012CBE1995FD019BBFE2
:101E6000078310872187202B212B41F006891789B2
:101E70000F5F1F4F068B178B06D002C00FEF1FEFAF
:101E8000E4E00C94AA0100E010E008950E949301A0
:101E90004801A22EDA01962F4B845C84F4DF03C044
:101EA0002FEF420E521E242D252941F099BF3D915E
:101EB00099B784012A2DBDDF112392F7EDE00C9430
:101EC000A3010E949A01D801922F832F032F10E0C3
:101ED0000E94340B0817104019F48D01292F03C0FC
:101EE00000E010E020E0E4E00C94AA014D010000C5
:101EF0008221000000005200000030210059EF0153
:101F000000082E085B088808B508E2080F093B099D
:101F100068099409C009EC09170A420A6D0A970A70
:101F2000C10AEB0A140B3D0B650B8C0BB30BDA0BE0
:101F3000000C250C4A0C6E0C910CB40CD50CF60C54
:101F4000170D360D550D730D900DAC0DC80DE20D2E
:101F5000FC0D140E2C0E430E590E6D0E810E940EB8
:101F6000A60EB60EC60ED50EE20EEF0EFA0E050F39
:101F70000E0F160F1E0F240F290F2C0F2F0F310FCE
:101F8000310F310F2F0F2C0F280F230F1D0F160F9E
:101F90000D0F040FFA0EEE0EE10ED40EC50EB50EA7
:101FA000A40E920E800E6C0E570E410E2A0E120ECB
:101FB000FA0DE00DC60DAA0D8E0D710D530D340DE9
:101FC000140DF40CD30CB10C8E0C6B0C470C220CC2
:101FD000FD0BD70BB00B890B620B390B110BE80A09
:101FE000BE0A940A6A0A3F0A140AE809BC09900961
:101FF000640938090B09DE08B108840857082A0863
:10200000FD07CF07A207750748071B07EE06C206A4
:10201000950669063D061106E605BB0590056605B1
:102020003C051205E904C004980471044A04230421
:10203000FD03D803B3038F036C034903280307038D
:10204000E602C702A8028A026D02510235021B0293
:102050000102E901D101BA01A40190017C016901E9
:1020600057014701370128011B010E010301F80048
:10207000EF00E700DF00D900D400D100CE00CC0093
:10208000CC00CC00CE00D100D500DA00E000E700A3
:10209000F000F90003010F011C012901380148017A
:1020A00059016B017D019101A601BC01D301EB0136
:1020B00003021D02370253026F028C02AA02C902F8
:1020C000E90209032A034C036F039203B603DB03FF
:1020D000000426044D0474049B04C404EC04150598
:1020E0003F0569059305BE05E905150641066D0620
:1020F0009906C506F2061F074C077907A607D307FE
:1021000080808080808080808080808080808080CF
:1021100080808080808080808080808080808080BF
:1021200080808080808080808080808080808080AF
:10213000808080808080808080808080808080809F
:1025100080808080808080808080807F7F7F7F80BF
:1025200080808080808080808080808080808080AB
:10253000808080808080808080808080808080809B
:10254000808080808080808080808080808080808B
:10255000808080808080808080808080808080807B
:10256000808080808080808080808080808080806B
:10257000808080808080808080808080808080805B
:10258000808080808080808080808080808080804B
:10259000808080808080808080808080808080803B
:1025A000808080808080808080808080808080802B
:1025B000808080807F80808080808080808080801C
:1025C000808080808080808080808080808080800B
:1025D00080808080808080808080808080808080FB
:1025E00080808080808080808080808080808080EB
:1025F00080808080808080808080808080808080DB
:102600008080808080808080808080807F7F7F7FCE
:102610007F7D69625C5A5A5D60636669707473732A
:10262000727174787F877B625F5B647491BBC7D083
:10263000D0B5B0D3FFFFF0DEF1FFFFFFFFFFFFEAF1
:10264000D3B3B2A48A665B6B6A431C0A0500000020
:10265000000000000000001C190700000E32353495
:102660003428161F2D2E2B3B3F50636267798C9BBD
:102670009F9CB3D3ECF2EBE1ECFFFFFFFFF7D3C479
:10268000D5FFFFFFFFFFFBE8D0B4A69C9698A09C67
:10269000988D8D92A4C1D3D3B4907262697579710B
:1026A0006A6355525C778D86776B563A25202539BB
:1026B00045474A4E58676C757F8B897771777E8363
:1026C0007C726A6159575B626A736E66645F544DCF
:1026D0003D3230383D403C332B37404657635E54E3
:1026E0004E504F493A405768727D8794A7B7BBBC9C
:1026F000B9B8B2AFB9C5CFD8DCE5EAEDF6FFFFF661
:10270000ECE7E8E9DFCFC8C7C8CACACECDC8BDB1BB
:10271000A9A9AAA99C8E8D8F8A7860574B34211A5B
:102720000C030D263E36394B5C4E4B576F6C5A549A
:1027300061626A6E7277736C6E7261605B4D4E5A45
:1027400052383440444246474C50515751475058F4
:1027500068707577888F878080969B9AA5A89796D2
:10276000ABACADABB3CAC2C1D2D5D2E8DFD9DCDDE8
:10277000D9DDDFE5DDCAC6B9AFA7A1978D8D8E89FA
:10278000846E543C3A3A423B434A403D3E434442C5
:102790004B63686A6B6152657376778194A3AE9DD3
:1027A000A4A4A7B0AEA48F7C6E79727D7A7B756588
:1027B0006478816D6F787765525452443348655917
:1027C00054555D5A5963615F514641545A5A576393
:1027D00070726E7386928F93AEA69EA5B5BEB5B786
:1027E000C4B8A5A9ACAAA5A3ACB5B3B7B5AEA6A20B
:1027F000A6A1A1A8AEA8ABABADBAACA9B1BCB4B10F
:10280000989E9B907F827F6C5E67624F4A414C4CE2
:102810003C272D27191C32403F2A2F3E56707D82BF
:1028200089979292896D6A6D85838B9A8C7F818A54
:102830007D80827A73766D736E7276717880809007
:10284000847F7E6F7F797B867B82929295A2AAAFEE
:10285000A2AAA089948E98A3A5999B8E8FA3A6B0B7
:10286000C3C0AF9C97888C958C857160584D4E4B3A
:102870004D4F474F596768666766695C6A7E8A8014
:102880006F738191A3AAA7A4A59E98A3A69D9F97C5
:10289000838F8B78656E796F78676157596C665551
:1028A0006166635B61615A62727077766E79757C7E
:1028B00087848A95806F6D656E6D75717F878C8258
:1028C0008689A2A6A2A2A19D96A0B4B3B7ACA2ACE1
:1028D0009B9DA6A996928485818E848693897D7D11
:1028E00067696A6E6468736F65718480816E6B6FEF
:1028F0007076756F79757C706B7B8689888A755365
:1029000059707D837E7E7068677375888FA19E89FC
:10291000868386847481867E7A746C6763695E5E62
:10292000788183847A6C736E7D838496939383938A
:102930009F938689A7B19188919F9D90ADA68D8B1D
:102940008D86807A7D8E746B6C6B6C67656F747D21
:10295000746A65756F717C766F717883776D80911D
:10296000847F665D565A6881918E838286858486CF
:102970008C9898898C959297A0989B8DA0998B9410
:10298000858C8F8A7D7D7A7C7A7B77796B6D747D7F
:10299000787776897D7B767A796E656B74757686C5
:1029A0007B797B7D75738383776C6B6E70767587AF
:1029B000908E898A808685929A96A2AD9A8E7F8E15
:1029C000958C8F8B816F6E737F7B817062586B7D6E
:1029D0007F77716D6F757D7465646B737587969481
:1029E0007D716D7C888C8B8B8081898483898B8EB3
:1029F000898389838176798285969A9794908F8747
:102A0000858A95989085939284867F7B7B6D686F8D
:102A1000766F6765636B787378807C6A7B8175738A
:102A2000818986849088868B8B87897F88857D8540
:102A3000919286797F7B727E6D686F70646B738014
:102A40007E8981807273838C807678808989878B78
:102A5000948684846F6B757B635A60697271747835
:102A600070666D82848796949392A1A1969FA79990
:102A7000999C879590979E9A8D93888A7F7D847F75
:102A80007B7E746C7978737772676B7275777782F7
:102A9000887877727779626369686F71797B7C7601
:102AA000787A817E83938A7880848C9191979E93A3
:102AB000908B89838B908F87857A6D686B70788116
:102AC000726E767C76787E76777B7B79747787807A
:102AD0007A766E6B6F737F7D79858893999B8C7DF9
:102AE0008780828A879286828B8D8D979384848655
:102AF000909D938D929D958E85877D737376747965
:102B0000787A767674787A75656B6F75787E747876
:102B1000837B798178897E757E8888888A78757DBF
:102B20007A79818F86776D6B797F79717370717324
:102B30007F878478767272838174737473768083EE
:102B40007D7F827D747D8886858C8B878687827F5A
:102B50007F898C9794918E9295939A99978A847A8B
:102B60007E868A8E8C83817D7A8084827F7674765D
:102B7000786D7279777571787B787678747A8685D6
:102B80008683857C7E7F8A8F8C7F7470797C7C7352
:102B90007E8388818186837B8384838181807F7922
:102BA00073757C86898983817C717577726E737188
:102BB0006B6A646870737F8175767B818D8A837F91
:102BC00078787D7C86878C8F8F848E8B91938F9085
:102BD000908C888D91908B8385827B87958D8B8758
:102BE000848787828286878B8984807B787A7A79CA
:102BF0007E82827F7877747674747574736E6D6D6F
:102C00007070797F817F7A7E7D7B797D7A7C7F7F12
:102C10007B7C7C807A747575797B7F817D7A7A7A0A
:102C2000787C7A7A8682737781807F8587858A8AA5
:102C300091958989918E858686868684818784860A
:102C40008E8180807E858686848382808486858549
:102C5000868280828588878381797D7A7A7A82816B
:102C60007C7C77747A807F7F80807E80857D818484
:102C700083807873817F787D808179797B7E797894
:102C80007A7870757E797774727274747F807E7AC8
:102C900075797C817A7A7E7E7C797E7F83837D7C68
:102CA000828282857F77787D7F7F8283818285841F
:102CB000878990908E8B8B8B8D9697938B88878A44
:102CC000888A8F9187858785818386827E7B8387AB
:102CD00083827F7B7E80807F7A787D7C78787A7D26
:102CE0007B79737975716F72737B7972767675748F
:102CF000777777777D7C7E7B7C847B7978777C8423
:102D00007F807E7D808483827E7B7D85817A7F83C8
:102D10008181817F7B81837F818082838380878A99
:102D200088888488898D8A86837E80837F80838259
:102D30007C7A7A7D838387898786837F8687818172
:102D40008384858386868984807C807E7F82847C60
:102D50007878787978777B7A787E7B7A7C7C7E7CD1
:102D60007B7A787C7F828382817E7D7B7A7D7A7894
:102D70007B7C7B7975787D7E7B7A7B7771797B7BB9
:102D80007D7E848586858286898A878484838286FF
:102D9000838082807C7E8181817F8480817F858B1E
:102DA00087898887848785898886868983848783BD
:102DB00081847F7B8283807C807C807D797C7E7B2C
:102DC0007D817E7E7C79797A7D7C7E7A7A7B7C7B44
:102DD0007B7A7973736C564B474A4F4C485257591C
:102DE000607E96866C504A5463788C8E8A8F8B8274
:102DF000A1A18372A8BB9285D5FFFFFFFFFFFFFF54
:102E0000FFF7E1D5C2A4969A94794B392D16090A99
:102E100007111C1C1D283B330700000000000000A8
:102E20000000000000000804000005272F2F2C2FB1
:102E300042575E636E726C7385A7C4C5C6D1C2A3C8
:102E4000887C849BBCE3FFFFFFFFFFFFFFFFFFFFCA
:102E5000FFFFFFFFFFFFFFE6D6CAD5E7E8E7D1ADEA
:102E60008A6F657F9699826F676569757D7A6D5106
:102E7000413B49525448392D262523242A2E282502
:102E80002B353B474C3A333D52656F737D7D6E5D0C
:102E9000535554452F271F141824322E221A171D5C
:102EA0001C242F2C232839494E637A7E7F80848806
:102EB00091A2C0C8BEB4BDC7CCD7DFD2B9AAB2C434
:102EC000D3DEEDFAFFFFFFFFFFFFFFFFFFFFFFFF76
:102ED000FFFFF6DCC0B8B0AFB0A9988A766863652A
:102EE000444650543D3E40585D58707B717B70564F
:102EF00051513E2C1D101E3044515D52483E20134E
:102F00000E091108000D2C2D352E34242C3F38339A
:102F10004F5751414053686A6E666A8BA5AFBBBD7F
:102F2000BCBAB8BBCAE4F8E5DDE9E7EEFEFFFFFF97
:102F3000FFFFF7D7DBD2C6CAB1959386796F62637C
:102F40005F5D4B444D474B52594C36302718142C7B
:102F50002A496686A4BAAEB3C9CEC1C1CCBEB6AD4D
:102F6000B5AFA2A1A199AFA0949987799392755911
:102F7000615F6157475450506B6B5C302E362A218D
:102F8000454A42291B1C25110D27393B393A445229
:102F90005D696779887F818F8DA0ABAEA6A2979877
:102FA000A7A1ADBFBDC7E1CBC2C2C0C0AEA294A7AE
:102FB000A6A5949AA2B1C2CDCCC4D0CBC5C1CBD961
:102FC000BCACB6AFA3AEA096887B6F6565463331C7
:102FD0003E46495952665343535E7597A19982758F
:102FE000676364615F4E4D4B4B586C5F57707078F0
:102FF00089795E6371735E728074697F7F657481A5
:1030000093927B8295917576928D73737482898D7C
:10301000687369737F7D69676C6B604A5E5C515B46
:103020005F707C7D7C827C756177898D8B92A4A496
:103030009CB1BBBAC8B9C4C4C1C7D2CAC2BCAEBDB8
:10304000BBC7C7BDADC3C6D4CECBC5ADA49BAB95E6
:10305000916E674631353C3D493B2C3C40393C3E06
:103060003A3D322B373F4E4B48443A454F5858591A
:1030700054605B68677F7E798D96938D95897F7AA2
:103080008C7F81948C99A19F8E97A49C9189828E2C
:10309000969B867B88A79E9BA3AEA6B0AE8D8378B9
:1030A0007E7C8376747372818B7F8C856F6E839C3C
:1030B0008F8B8989AAA7957C7D8C908385959E901E
:1030C0008F8E908688909C9582858A95839EB591F7
:1030D0009994887A8176726861656D5E606D7873A7
:1030E0005D646A7669614B534D49535251574A4763
:1030F0004B4A576F746C63786A5F6466615A67778E
:103100007A7D8A7E8B8C89746D748180636B7789FC
:10311000999F8E9EABA99DA6A9B7B2A9B4BCAAA738
:10312000AD95A8BAAD9D8D9194919D9B857271834B
:103130009495746B7E938888908F9484908A81850F
:10314000919096969599838D969281686B5B686D48
:103150007B7A7E70756C6963574C62778B78767278
:10316000656163584B57625F647A6F6A6863666330
:10317000695845556A6B767E6A6A748578706D7099
:1031800082747277808183827A7F878E938D8E9905
:103190009987869399A7A29A87908E99989CA199CE
:1031A0009EA9A3B2B4ABAAAFA7B2B2A99F9C9CA69A
:1031B000908F9292898D90838979827D7C768A9393
:1031C0008D7D74777F7F7F86776E635A5D6B6D6CC4
:1031D0006B52486048404F5C5154615E6960545086
:1031E000484859625D505373797176787D80949226
:1031F00087808C8E849298A595908B9E9EA49CA788
:10320000B2ACA29F9FA2A7A2958D7F7E6B7C7D779B
:103210007079755C5666675A564F5C615B64737370
:103220007C807F7E94A09599A2969FA99B9BA8BA2B
:10323000AFB8B9ACA4B4B3BCB7B6B2A6BAB19F8F9D
:103240008D8C7C69586C6D6D6B6A5B595C5B5851F9
:103250006257403E504748444C564A495051525597
:103260006069765F666F7370625E636A68757778AF
:103270007684838F9AA6A095969292A0A6B1AFB4B9
:10328000B5AEA09AA2A1959C948B908F8F929294A8
:103290009E9589858F80807C849A99999486827F77
:1032A00083819389807E80876D6673776B6D7B8564
:1032B0008F847F767077777C676C7A78878986824F
:1032C000858675837F807E766877705F67665B5DD5
:1032D0006B7575756C6863627A8577777E787778B9
:1032E00083828D8F8A85807E808580929C94887B66
:1032F000717881767D897B7885827673696E67794E
:10330000848E887D797F808275707D89828A8578B8
:10331000727F89909585787C76807B8589988A8173
:1033200092999D968A93A5A4A2A09E9192A0939C07
:10333000AAA2928480808D968C787B837F7B757E19
:10334000786864687476695D6A6765666D635A5506
:10335000636B66656D77786F6A6D605E636E7173BF
:103360006D6A6B696F787F8E8E89958E8B989D9430
:10337000938E8083898B959E9581778A928E949483
:10338000A09F928B81858B8B8588888B7D77736AD4
:103390006C81898A8D8F8F877E7B7D7A7E81858403
:1033A000888884828B7E777079747F70717E848444
:1033B00087898E8A86847A7A89918981827A6F67F1
:1033C00074848980757579807A807C7C735C57659C
:1033D0007F8371726F5B5F657C6D626E77757980DC
:1033E00086857273798895A29C8B817F757B7F8D92
:1033F0009998948D8B8885898F8D939084878F86FB
:103400007F7C7D8F8F88827E808690938A71728682
:103410008A79737E8B8880787473726272848B87EA
:10342000827F7F827C86837D7C7975758397948F7C
:103430008177817F869A8D857866717A76777A73BF
:10344000686F777F949B897C6C69758374686F6EF5
:10345000726D6D75777778796E6E77777B7D827810
:103460007677848A8788817F8087808086848E951E
:1034700094918E8D9498918A91958D86878E95855D
:10348000878B8A888E8B84858689878383848587CA
:103490007675767C8487827C7B736F70736D6A74BB
:1034A0007A7878776C65727B85848080817B737A8B
:1034B0007F76767E777A828489898C8C8D8A8383E5
:1034C000877F7A7E7C7A82857F7F727076777A7F3B
:1034D0007B757B7B757A7D7A747B837870747D7C59
:1034E00078777A7A7A8186888683838286878482CF
:1034F0008D8986898B8C93958E8B8D8D89938D8606
:10350000908F848185868A8A7D7B86877A7A7A778E
:103510006E706E6F7F7F7E7F8181848085887D78ED
:10352000828381766E73716F71746F6F727773704F
:103530006F737C837F7F7A7F7C84868D9389848977
:10354000868B8A87837773828982817E767774748B
:103550007C7E7F817F7E76848C8B8080888078786B
:103560007E838A8D8889888A8D86828B877F77790A
:1035700081828687807F7A798387848D8C83848714
:1035800086828385817F7B8085837E7C7372717761
:103590007A797A7B78727B797A8182837F777A7C79
:1035A0007D85848583807E787A7E827E7D81878812
:1035B000867F7D797D7E857E777B827D7575787A45
:1035C000736A6F757877767A7674757472787C839F
:1035D000817E7879818B89858683878E9190918F82
:1035E0008A8F94919492928E8C8B89898D8D8E8DF9
:1035F0008784888B888688877B7A8087897F77769F
:10360000767273727677757174777B7D7B79767459
:1036100074787B797476757476797A79757A7B7437
:10362000797C7A7C807C7C7E81858586898C887E8D
:10363000878B85817F7E77777F7F7F7B7979777DA9
:103640008385848486837F84837F8088857F7F874A
:10365000827B7B868485858786828087858181833E
:10366000878882808684807E82868886818186851E
:103670007F7B7D85837B78777E7F7F787A7C7C7D7E
:1036800080817D777776747780808080808080806D
:1036900080808080808080807F7F7F7F7F7F7F7F32
:1036A0007F7E7F7F7F7E7F7F7F7F7E7E7E7E7F7F30
:1036B0007F7E7F7F7F7F7F7F7F7F7F7F7F7F808019
:1036C00080808080808080808080808080808080FA
:1036D0007F7F7F7F7F8080807F7F7F7F7F7F7F7FF7
:1036E0007F7F7F7F7F7F7F7F7F80808080808080E3
:1036F00080808080808081818080808080808080C8
:1037000080808080808080807F7F7F7F8080807FBE
:103710007F7F7F7F7E7E7F7F7F7E7F7F7F7F7F7FBC
:103720007F7F7F7F7F7F7F7F7F7F7F7F7F7F7F80A8
:103730008080807F7F80808080808080808080808B
:103740008080818181818181818180818080808070
:10375000808080808080808080807F7F80807F7F6D
:103760007F80807F7F7F7F7F7F80807F7F7F808063
:103770007F7F7F8080807F8080807F7F7F7F7F7F53
:103780007F7F7F7F7F7F7F7F7F7E7E7E7E7E7E7E50
:103790007E7E7E7E7E7E7E7E7E7E7E7E7E7E7F7F47
:1037A0007F7F7F7F7F7F7F7F7F8080808080808022
:1037B00080808081818180818181818181818181FD
:1037C00080808081818181818181818180818181ED
:1037D00080808081818180818080808080808080E5
:1037E000808080818180807F7F80808080807F7FDB
:1037F0007F7F7F7F7F7F7F7F7F7F7F7E7E7E7F7FDC
:103800007E7E7F7F7E7E7E7E7F7E7E7E7E7E7E7ED5
:103810007E7F7F7F7F7F7F7F7F7F7F7F7F7F7F80B8
:103820008080808080808080808080808080808197
:103830008181818080808080808081808080808183
:1038400081808080808080808080807F7F80808079
:103850007F7F807F807F7F7F807F7F7F7F7F7F7F75
:103860007F7F7F7F7F7F7F7F7F7F7F7E7E7F7E7E6C
:103870007E7E7E7E7E7E7F7E7E7E7E7E7E7E7F7F65
:103880007E7F7F7F7F7F7F8080808080808081813E
:103890008181818181828181818282818282828211
:1038A0008281818181818181818180818181818108
:1038B00080808080808080807F80807F80807F7F0C
:1038C0007F7F7F7F7F7F7F7F7F7F7F7F7F7F7F7F08
:1038D0007E7E7E7E7E7E7E7E7E7E7E7E7E7E7E7E08
:1038E0007D7E7E7E7E7E7E7E7E7E7E7E7E7E7E7EF9
:1038F0007F7F7F7F7F7F7F8080807F8080808080D0
:1039000080808080808180808181818181818181AE
:103910008181818181818181818181818181818197
:1039200081818180808080808080808080807F7F96
:103930007F7F7F7F7F7F7F7F7F7F7E7E7E7E7E7E9D
:103940007E7E7E7F7E7E7E7E7E7E7E7E7F7F7F7F92
:103950007F7F7F7F807F80807F7F7F7F7F7F7F7F74
:103960007E7F7F7F7F7F7F7F7F7F7F7F7F7F7F7F68
:103970007F7F808080808080808080808080818147
:103980008181818181818181818181818181818127
:10399000818181818180818181818080808080801E
:1039A0008080807F7F7F7F7F7F7F7F7F7E7E7E7E28
:1039B0007E7E7E7E7E7E7E7E7E7E7E7E7E7E7E7E27
:1039C0007E7E7E7E7E7F7F7F7F7F7F7F7F7F7F7F0C
:1039D0007F7F7F7F7F7F7F7F7F7F808080808080F1
:1039E00080808080808080808080808081818181D3
:1039F00081818181818181828282828282818281B0
:103A0000818181818181808080808080807F7F80B2
:103A10007F7F7F7F7F7F7F7F7F7F7F7E7E7E7E7EBB
:103A20007E7E7E7E7E7E7E7E7E7E7E7E7E7F7E7EB5
:103A30007E7E7F7F7F7F7F7F7F7F7F7F7F7F7F7F98
:103A40007F7F808080808080808080808080808078
:103A50008080808080808080808080808080808066
:103A6000808080808081818181818181818181814B
:103A70008080818180808080808080808080808044
:103A80008080808080808080807F7F7F7F7F7F7F3D
:103A90007F7F7F7F7F7F7F7F7E7E7E7F7F7E7E7E3C
:103AA0007F7E7E7E7F7F7F7F7F7F7F7F7F7F7F7F29
:103AB0007F80808080808080808080808080808007
:103AC00080808080808080808080808080808080F6
:103AD00080808080808080808080808080808080E6
:103AE00080808080808080808080808080808080D6
:103AF000808080808080807F7F7F7F7F7F7F7F7FCF
:103B00007F7F7F7F7F7F7F7F7F7F7F7F7F7F7F7FC5
:103B10007F7F7F7F7F7E7E7F7F7F7F7F7F7F7F7FB7
:103B20007F7F7F7F7F7F7F7F7F7F7F8080808080A0
:103B30008080808081818181818181818181818179
:103B40008181818181818181818080808181818168
:103B50008080808080808080808080808080808065
:103B6000808080807F7F7F7F7F7F7F7F7F7F7F7F61
:103B70007F7F7F7F7F7F7F7F7F7F7F7F7F7F7F7F55
:103B80007F7F7F7F7F7F7F7F7F7F7F7F7F7F7F7F45
:103B90007F7F7F7F7F7F7F7F7F7F7F7F7F7F7F7F35
:103BA0007F7F7F7F7F7F7F7F7F7F7F7F7F7F7F7F25
:103BB0007F7F7F7F807F7F8080808080808080800B
:103BC00080808080808080808080808080808080F5
:103BD00080808080808080808080808080808080E5
:103BE0008080808080808080807F7F7F7F7F7F7FDC
:103BF0007F7F7F7F7F7F7F7F7F7F7F7F7F7F7F7FD5
:103C00007F7F7F7F7F7F7F7F7F7F7F8080808080BF
:103C100080808080808080808080808080808080A4
:103C20008080808080808080808080808080808094
:103C30008080808080808080808080808080808084
:103C4000808080808080808080807F7F7F7F7F7F7A
:103C50007F7F7F7F7F7F7F7F7E7E7F7F7F7F7E7E78
:103C60007E7E7E7F7F7F7F7F7F7F7F7F7F7F7F7F67
:103C70007F7F7F7F7F7F7F7F7F7F7F807F7F7F7F53
:103C80007F80808080808080808080808080808035
:103C90008080808080808080808080818180808022
:103CA0008080808080808080808080808080808014
:103CB0008080808080808080808080808080808004
:103CC00080808080808080808080807F7F7F7F7FF9
:103CD0007F7F7F7F7F7F7F7F7F7F7F7F7F7F7F7FF4
:103CE0007F7F7F7F7F7F7F7F7F7F7F7F7F7F7F7FE4
:103CF0007F7F7F7F7F7F7F7F7F7F7F7F7F7F7F7FD4
:103D00007F80807F7F807F7F7F7F7F807F7F7F7FBF
:103D100080808080808080808080808080808080A3
:103D2000808080818181808081818080818080818C
:103D300080808080808080808080807F7F7F7F7F88
:103D40007F7F7F7F7F7F7F7F7F7F7F7F7F7F7F7F83
:103D50007F7F7F7F7F7F7F7F7F7F7F7F7F7F7F7F73
:103D60007F7F7F7F7F7F7F7F80808080808080805B
:103D70008080808080808080808080808080808043
:103D800080808080808080808080807F7F7F7F7F38
:103D900080807F7F7F7F7F7F7F7F7F7F7F7F7F7F31
:103DA0007F7F7F7F7F7F7F8080808080808080801A
:103DB00080808080808080808080808080807F7F05
:103DC0007F7F7F7F7F7F7F7F7F7F7F7F7F7F7F7F03
:103DD0007F7F7F7F7F7F7F7F7F7F7F7F7F7F7F7FF3
:103DE0007F7F7F80808080808080808080808080D6
:103DF00080808181808080808080808181808080BF
:103E000080808080808080808080808080808080B2
:103E100080808080808080808080807F7F7F7F7FA7
:103E20007F7F7F7F7F7F7F7F7F7F7F7F7E7E7E7EA6
:103E30007E7E7E7E7E7E7E7F7F7F7F7F7F7F7F7F99
:103E40007F7F7F7F7F7F7F7F7F7F7F7F7F7F7F8081
:103E50008080808080808080808080808080808062
:103E60008080808080808080808080808080808052
:103E70008080808080808080808080808080808042
:103E800080808080808080807F7F7F7F7F7F7F7E3B
:103E90007D7C7B7A7979787878777776777777779A
:103EA0007777777878797A7B7C7E80808180807F55
:103EB0007F80807F8082838181818383807E7D7902
:103EC00075767E8B82929EA9A3A1A0A19C99A190B8
:103ED000899997949A97929396979A99969791948D
:103EE0009D979797928F9093918A817A7576788132
:103EF000817171665F6672797D7B796E6156575309
:103F00004E494F514E52514D53595B5B6161645D57
:103F1000686D6462616265666A6C6E71777B8088C9
:103F200092999893928B8A7F777074797E787C7956
:103F30007A78767D7879807F7D86909192989C9B27
:103F4000928C9595847F868C8E8F919FACB1ABA718
:103F5000AFB4B4AEAAA6A1A4A3998C827B7C7D85C4
:103F60008C8E9296989BA0ABB2B6B6B1ABA3958D52
:103F70007E7064605F595F62645E646663636A70EA
:103F8000716F7178767174756C6E716C68655F5F56
:103F9000575154534D4F504E4B50514B46434A4D41
:103FA0005051545A65727981898C928F9196939869
:103FB000999D99988F8F8F93908F8D8B959A9FA3B2
:103FC0009E97959291857F7E7B78706D6D737578E5
:103FD000777D7E8A959FA5ADB1B9BBB9BBB8B7B3A4
:103FE000AFA69F97918C8C9297908581807A727002
:103FF0006D6B66686A6C6B7176777671737D848F92
:1040000092919295919090908D8B8882827E7C7A0D
:10401000716D778084857C797B7B7372706D6C6C3D
:104020006B6B69686E6D6A65666F716F73747068CB
:104030006965686A696C6D7274776F7178838B9249
:10404000929698969B9A9A989E9E9A9391918D8912
:104050008B867F888A877C7B7C8586868B8F8C8EFF
:104060008C8B8C898284847B8083858E908A8886E1
:1040700085858C9197959291908C89857F7A7673BE
:1040800071717579736C6C64666967665F60666A86
:104090006E6E6E6D75797B747579756B636566632D
:1040A0005D6162626265676D6B717474706B70756F
:1040B0007D818A9390888683898E8E88837F838989
:1040C0008A8584817B7B7A7B7C848C8F8C868485BB
:1040D0008689817B83888382848486828792929575
:1040E0009A9B9B99979A9A96989A928A8C88838998
:1040F0008683796E69756F6467686E726F6A6C78B3
:104100007E78787E7F7F848A847E7F83878D868594
:104110008C888A88888583817A6B6D7277746F7BCF
:104120007D7B7A767A8387847E7F86848A8984827F
:104130008078797D7E7C797A7E81857B8289868094
:104140007E7F817D7879838680828F958F88807E3F
:10415000858887828687878789878A8A8B918D83DE
:10416000787B8188898C8E8A8580828384807F7C1D
:10417000787C7E78768486837D7C7F807E79736B85
:104180006E727C7E7D777A7D8384817C7F817B707B
:10419000726E6B717378706362677473716E72782C
:1041A0007D86857B7A7E8385807B838A8C878588E4
:1041B000939EA2A097939798999C92827F888B86D2
:1041C00085888882787B837B6E6F7A84807F7E800F
:1041D0008284807E848B93928E8281828794998D53
:1041E000898D958E82848C888889878F8D81767C55
:1041F000796F77716B7170616167706D6F6C6964F5
:104200006771747877737C8885838B867A808883DE
:104210008388847E797D7D7B80827E807970797EC3
:10422000777C83706A788488867F7B86857E7C7EB7
:104230007B787D83747086847C87847C838C868085
:104240007B777D7E757B8A8B7C6A75827E76807CAF
:1042500076827A6F78818482786F72747782847BB9
:104260006F73869283848E817F7F6F788D89818C36
:10427000807C8384838785838490A19E9494958D8C
:104280008D8C7B7C7B6B6B787A756F74828379768F
:10429000747C898981878B8597999097998F92955E
:1042A0008272747885807974757D7871777C757C7D
:1042B000857F7078767B8B8E7D7F7D717277777648
:1042C000726A6B6E7D8075777774777E7D79838374
:1042D0007073797679838A796E7A797E897D7A842A
:1042E0007C7D90988A83887A768384777B807B74C0
:1042F000767E7F828685877A7D8D94998C8285856E
:10430000868F8A858A887D7A87847D848989919041
:1043100088858F927D76797B8B937A717B8786896E
:104320008E898B8C85868279767D8784707383886D
:10433000837F738B94827884817879726E7F8277A1
:10434000787D817B73827F73869085888A8487904D
:104350007B697576747F867E707579706F79736C02
:104360007B837A7F817D7D796E78867D79797C7F8C
:10437000756E7B838C887B747C7F7D838180848B4E
:104380008593887A7D84858874727C828A8068703F
:10439000898C8A8F83777C83828082868E94988FA3
:1043A00085889297A29483898C7F858370788277A1
:1043B0006E75717A70606C7C75737273857B737EB9
:1043C0008891988875868A7977888D8C7E747F8BA2
:1043D00084727083908179857A7E878177837D74FA
:1043E00079837F76666C7A73777F78827E71748842
:1043F0008780827E859181798993978F888C8B893C
:104400008B8A8188887B8589716E757B7D6D687DDF
:10441000919584727C8D8A8380848A837D80999033
:104420007A79757D8E8981898A7F757B8B836E739E
:104430007E837873727C8E80737E7A868C837473AD
:10444000797B78757A72767C776E787E7D868172DC
:10445000787876828B88837F7F7C84958F7C7F7B46
:104460007F8B8F8A7F827A7682877F818985776F3B
:104470007F858B89817B7D868E8A877F7D8A8483F9
:10448000848F8C817F8687909582837F7A807B72F0
:104490007C8883797A79697D837F7A7A727881835F
:1044A0007571867E7A7B737F8E876E72807C727761
:1044B00080877B7372707F7E6F717B717D847A7869
:1044C0007A7067747D7578807B7C75697688917B5E
:1044D0006D828E8B8C82828E8B8C8E9EA892867A39
:1044E0007A7A7D7D78767A6E697D78727875788B48
:1044F000828294948C82838891988C817D8C887838
:104500007A8D8E96907C838D8A8F8777777B777470
:104510007278797271726F789191757074757F8706
:104520008082887D837D82888A90866D75857B7880
:104530007B7469746A5F7C7F6A736A6D7A828B8A26
:104540008A8C82838985859092847E7E7C92A086E7
:1045500075807C92958D8D7B808D817E8D988E87E8
:1045600082767C8A7E767E7473776C788489756BAC
:1045700085948B8D96938F83868B86858387816FB9
:104580006A64698784705E648786717580808587B8
:104590007E7C97927C8682727D8188897A73627430
:1045A0008B807F7B7E7F7B7D8280877E7689828603
:1045B000807A8886766E67798B8E8C756E80919204
:1045C0007E898E7681928C93897D8C8E8B786D8698
:1045D0008777726E78878877728B8D6C70799398F5
:1045E0007C73929F92878C968C8E8479818777706A
:1045F0007986776D8280877D5E6D857C76707D8320
:10460000717476828B8777758695796C7C818177DA
:1046100076818185817D897870848B8D8B7A72809B
:1046200081746571807F78636D7E7E7E6B657A7A3A
:104630007279808A8872668591928A8C8B928D833A
:10464000889096837C8F9A817D838594855C6C9815
:104650008A726F656A80776C6D8086766F838879E1
:104660007B869290827A8898878587888A8B8585D1
:104670008C8C736A779092736F78797F7767728486
:10468000747273767A7E8080847C6F80938D7D8354
:1046900080838A887E84938581868C918A8A8D7CAA
:1046A000888172787A78727276727B8178727B7880
:1046B0007E8289887C7E817D877C818A7784827DE9
:1046C0007A818B8F828B8E838E868A847A857A7F9D
:1046D000968076897E7F797A787B8782737A717407
:1046E0007E7783796E76838F8B787E82888C8494B4
:1046F000938883747E8B7A71827E857D7B727794BA
:10470000886E797E818F8A817A7672788B847475CF
:104710007D82827574838D98886F7B8B8F8684836E
:104720007C7E767D8679737B716E7883857F7A7BDC
:104730007073888A8082797F88847E84928E7D7669
:104740007D868689887A7B857E7F83737E8A726E7A
:104750007E736878786F66697186887B7A7E7882E6
:10476000837E91968E867A7692947D7481877B7D06
:10477000858C87807670828986827D757E78738A43
:104780008A7B7378878F857A7289917B8293878CF5
:1047900081827C79888883817D7879899586817DFD
:1047A0007C8C7E7383867B7A717F848885757B7C25
:1047B000838477767B79807F7A807675807D7B7243
:1047C000889685868270848A87756F7D7C79836CF4
:1047D000758977807B788476817F7E8479787D8007
:1047E00092806E83817779767A7D766B6F8A877710
:1047F0008285848F8274858D9083818A91927C7D5D
:10480000937E678191927D7079868F8780807F9576
:1048100082727A857776777B8683727D9D8D7974B7
:104820008492928A838286827C8E9A8D7C777B8B1F
:1048300089756B7B85837879798F8D7E8180858B77
:104840007D898776777A858E8E746C76838279728D
:104850007989847C6E77777F81857F7A807E7A867E
:1048600085747A878D8E8575777C7C71797C7A7575
:1048700080776F81817C77878D8377868FA0817524
:104880008B858587828C8673717C7F7A6E7F858C21
:104890007F6E79888D87807C838E92878E92776EEB
:1048A0008587808573726E777A7475777D76717976
:1048B0007B838F74778C8785938B88858981808DA6
:1048C0008585776B7C7E776E7178787E88826C7157
:1048D0007B7A7C73726F79817D76837D7D787C6D48
:1048E0007B8A8B848D877D828991887889938A7A67
:1048F0008084827D7D707C8C8B787079847A7076F0
:10490000818782777A878F87818584817A8D818379
:10491000828079878C81797D8D8881777D7F827592
:1049200076808083837F7576807F8283787E8B8795
:104930007A7E867A7A87837C7C867B7C7E7D758591
:1049400085827D78867C7A69728689747A7F7C73A9
:104950006B7E808077798A928080888E988A848323
:104960008F927A768F8582747688948373738C7C29
:10497000737B817C7677828A85827D888977776F61
:1049800082968584767A8F8A8C8C7E868B99947DAC
:104990007D7F808E826E7D7E857870766E6D7D6780
:1049A000718A7E717B857676838781887182978410
:1049B0007872838C80737B7F9088737982777E880E
:1049C0007D71747A7E85726B6A7682756476887F73
:1049D0007D78717B85818A93837C899593887A8E93
:1049E000948D85868F937F717A8F867B7978828A82
:1049F00073757D91867273847F847F85978D747FB4
:104A0000A48B767C888391816E7D8D857D74738285
:104A10008487868989706F7C82777C7A73777D7CC6
:104A20007E7E847F797B807A83868179777487889C
:104A3000887788836E6F848C856D7878727B7D73C0
:104A400075897C787E8380797C868F796A859C9451
:104A50007A6578838D7B767C837B7F7F817C7C7D90
:104A600075808D76819191816F7E90807F7C7A8434
:104A70007B727D8A7E7A848A8B9784728688817D18
:104A8000867C818288787A7E6C7B8F82757D797E48
:104A9000799384818D84827F787C858A82687B8A01
:104AA000897B88817E7E77858F8D7F7E8586827CDF
:104AB00086907F7674728B8E72727D837E7365842E
:104AC000907B6878878586888C8581827B8BA1889E
:104AD000727695897A787D8D8A797080847A6F76FE
:104AE000787A76788083886E697C897F7D778191FA
:104AF0008274778A887E7A887C838883858C87779E
:104B0000818B857F88827B7A77757083847C7677CA
:104B10007383736E787A8B7E7A7C908B8A777F91A1
:104B2000937E80928A828975738F83737D8D776E71
:104B3000767C81797B798F877F72809988727C8877
:104B400096987C7D80897F7E79817A79857E77755C
:104B500074778B81747C7F707A816A7688887B8297
:104B60007F7989917A7684817F7D93877F8588811B
:104B70008A917D78757C6C75727E7D6E6E76808391
:104B8000756C7475887A6F7F8F8474808F8C818F39
:104B90008A8E8A7B7C9496846E77868A89796A7DF0
:104BA0008A755C799B80687087937771829187782A
:104BB00072858E867B798890766C7F9E8A6D8292D4
:104BC0008B857B7C829587717B8B777B83817D74E2
:104BD000738096876C677C81867D7A87887A737C00
:104BE00086887680857F7F7A80828C7979938576B6
:104BF0007C9190757884878F9478657D927D787D9F
:104C0000827E7A72848773727E8E7A66728B8B84D0
:104C1000717387857F8188888083707A9E8A6D8290
:104C2000958F78759195807E7B7D858778828E8142
:104C300069777B797F7571748176726E8A877875F2
:104C400075848271779282777F7E7D918F7F8A8A49
:104C5000848688878E80777F787D887566867A6778
:104C600077897A757B7F7A7D8A8174848D87848148
:104C700082908E81748D8584808A847F76869084EC
:104C80007B7D798680827F6A828D7C697D9382724A
:104C90007782877D7B87807D857D8289868B897EF3
:104CA00089908686878079777C858B816C778B85E8
:104CB00070728378807C6C7C9783767E7E747C7D3A
:104CC0007E81787D776E83896D7A8D8A737D897D0B
:104CD0007C7B758A8C7E80798491856C687C9486D7
:104CE00072837E7C827C788484737A837D78767309
:104CF000808A7C7E7283977E7387857D828E918386
:104D000078788385857376788A7F7A8287888C879E
:104D10008A8E848C8B828E896B78907E727A787082
:104D2000706F77817E73787D818D78828884858AA3
:104D30008887888C83727C8B82889377757A7D8450
:104D4000797B75807F707C8B75767D7C82768182A5
:104D500085847C737C82887E7E83847C777D878D4E
:104D60007E868681868896897C7D81848178747C24
:104D70007F796E6B7A7D8D887079857E828A8C8949
:104D8000818281928A76828C8179737B8F83837F03
:104D90007C81808589818A7D6B7E7F837A6D778532
:104DA0008271808785747B7F7880848181847D7E19
:104DB0008C8173858881846B7B838A776F788D7B08
:104DC0007C807B7A7E786F77877F72838A787B841A
:104DD0008983757986817C777D848E866E6F7E8DE2
:104DE0008F75748586788080828B7B878E837480B4
:104DF0008887707E82718490816D818974788A8DB4
:104E000085847F7D8886817886827E8083767D8C8E
:104E100087767482828E7E7982876E82897E8173A4
:104E2000808A887F746C918F706F8279828C766FA4
:104E300083896C738F917871898F847E7F7D8A914D
:104E4000827E7C87827A757F776D738985766D68BF
:104E5000818A827D7E9091747F907E788B827D8E18
:104E60008374768C8B7A68838C7E8084777F766C73
:104E70008493806A7883837B7880858D82887F8421
:104E8000889290727B967C7B8B8C8277867B767EF9
:104E900085807E7A7D7880867B84866F7B8A737836
:104EA000948F7E6C6B829C92777D8185777C7D8DE3
:104EB000858E807681887F7C87907463878A897AE3
:104EC0006C6E83816A72867771776B808D86737B57
:104ED000939080758490947D7E868A7F7A8B8C797E
:104EE0007C756E838E7067737F7F7A7A737F897A21
:104EF0006F7F8381858C7F78828B858D8883767A9E
:104F000088938F8A717A9483707F897C7A756E79A1
:104F10007F7C797E6D768773719188786F829789AF
:104F2000849393817D8E9D918A8782918A76748302
:104F30008075736F6F8181676E7C73687586897EFB
:104F4000707E908373748E9A81757B939684788239
:104F5000949674728D94898376848D7474839A7A0E
:104F60005E687C847A636D817D6F65788B807B81E0
:104F70007E86868882869B876D8695918474808BD9
:104F80007D7680867F6F807C7877787D7B77828363
:104F9000797B7F828A82796F8A927E8276758E7F14
:104FA000777B8F87697D91908470708D9D7F607015
:104FB0009282767176868779747F857B6D87878DFF
:104FC00085797B96937C718F9787868186837E77A0
:104FD0008A7F7D7D767489886E66758584727E8908
:104FE0007A788E8B807982879186767E9187847F8E
:104FF000807E82968A6A7387807981867280897FB3
:105000008376777E857E737789807B887D748380C5
:105010007A878C848B7C668296807F82867F7C797F
:1050200084736E857976767675817279787B6C84F7
:105030008F827887928382838D7A827F7F898A7933
:1050400082877D848070748B847972807E7D7D7E82
:105050007B7E7F71788681767F7A7B8C817E827E73
:105060008C89797C8E838381818A86757E8A8C8700
:105070007D7C768D8B735E8992826377848D7E6171
:10508000749C7F69838784837D78888680747B881D
:105090009684717E918E80738B9C78677F838585E3
:1050A000787777707C7A7C87837782797584878537
:1050B0008C827277958B7E7980877C7B847C8B86D3
:1050C00075838277818E81807B77768381818883E7
:1050D0008584737F9088807E7D7F7E737C897571E7
:1050E0007574777F768382787780909380828682CA
:1050F000848877808A8676797781837C7A858475BF
:105100007A8A95897D87897C8089807F807677817E
:105110007B797B797B777773859380727B8E8F7DAC
:105120007580928D7D747B8E83837A7B7D85837879
:10513000818C7B7489958A7A7C89897F777D8A8541
:105140007A747181878373707D8E7C767379867AA9
:105150006D6E76858A7181827E867F87938C7F884B
:105160008D847E847980877A746A7F857D74747B70
:105170007F7D76848E85757B7D7A787F827C6D835A
:105180007A7C8E8D7E768E8E8B8E8589937C7284D2
:1051900082858478777376817680887D737A857E40
:1051A0007C7C7A8579787F8D82867C817C799092EF
:1051B00083858E9083818C828A8C8A7F8279817F9D
:1051C0007D75757A737785756A74717874726F837B
:1051D0008773707A7C8E898087838D8380898B84A6
:1051E000888B737389867A74767682867B767D8FD8
:1051F0007F6C7481898F797786867F7C8A7F7179CD
:105200008980877A7B77848D7B7585848783737BA0
:10521000928277847E87888A7C7F82888275798B68
:105220007E7C7D8389847C898977778A86817E7B71
:105230007D8385887670837D7C7C767D877C758692
:1052400083777E86808181757C8A7E817B7E817C6E
:10525000858E7E7B7D7679968377788287937C7541
:10526000858E77737D83817A85856E747F79837E61
:10527000767B7A7D878A847E8483809395818185FD
:105280008B8B777D827B84816F72827681827F7A3D
:105290007E827C83827C857D82818584838F867BF0
:1052A0008181828583877E787C7B80848287706E13
:1052B0007D85827574828479737B82788D91716724
:1052C000839183757B80757E7A858F776A808578F8
:1052D00081847E7C8D83717E90867D817D83827CBE
:1052E0007987836E717F8581847778898E7A827FD2
:1052F0008683827C7D7B7A7F8281807C8081847DB5
:1053000086857D8784748083807B7879807D827FA9
:1053100078847D75857B82848378818E8481827B8D
:10532000798381707D8B857A7480887C7C8B818287
:10533000807A8D8C7D7684857D78877C8785796879
:105340007783877A80827F81727C8786777C848569
:1053500078858889857D858D847A81858781826C31
:10536000778C8E7A727A85817D7C7F817B7F7D7B55
:105370007D8A7A857F7A757582968F836D8895860A
:10538000868D818C8077888B85737276787E7E6837
:105390007D877D7064768E8F807A798C7F7A828922
:1053A00085807E8587898A7E8183807979828D8DCB
:1053B0007C6D74877474878C7071797C867F777D3F
:1053C0007E818186797D8A8677777B7E8B81897ED7
:1053D00076727C878C787C8C7E77828A7C7F8487CF
:1053E00073777C8C86767B7D7B827C7A8A81717EEA
:1053F000827C8E8F837C7D848B8585867B7981867C
:10540000857A758780776F7B79818179787B7A7EE1
:105410007F78838787797E818A84787C8679818A80
:10542000857883898A7F798A828682757985818564
:105430007E737A8B84717C86857974758E81787899
:1054400089817F8188827D828281797F7F85858342
:105450007C7D747D928B747284897E6F817B7F7E6C
:105460007F797A828B837970878E7D758D8E776F49
:105470007F8787858A7D717C7C8278797C87857D32
:105480007A857678898379778488877B8476817E2C
:10549000877F7A868E847275848E777F827F727A18
:1054A00085877781848084747F90857B817D7381FB
:1054B00085807883817D7A798393817E7D7B8484E6
:1054C00087827D7F8685807F85858171707B7F79EE
:1054D0007C837C6F6D82917D7282848094878282CE
:1054E00084898A837A8A87837B87857B788F7F808C
:1054F000828B846E878C807479868C72797C7E87AF
:105500007E7C77787D847375757B747B84778077F8
:105510006E8395847A89888F8F89818999897E891C
:105520007D7D7F7E7F7980746C898C796D708083BE
:10553000797D7E79787B857A73848D7E7779867C98
:105540007E8D856C7A888484828382867D7A8A8D3A
:105550007E7F86817886897B7482857F7A7A7D8159
:105560007B6F747E777B8B797B7C87857C777E8471
:1055700084857F797E86878E7E6D7B8C8078807A2D
:10558000797F7D6E828D868681768585897F848709
:105590007A728E877C8684787F867B858173788318
:1055A0007B7B83817B7E887F6B788D887B7D827817
:1055B0007F7C7D9084717F86907A7B7F82828D7FD5
:1055C000718587837680848282767C8D80677D8FEB
:1055D0008C7E7171808C8E74758189857D7B7C7EDB
:1055E0008378818B7F7A77828779727B8188857EC9
:1055F0007E7C8083807F7F7E8578868B7F787F81AD
:1056000086887F6D7E90847E7C79778990836C7AA2
:105610007D7A7A8479797489858673819B90838970
:1056200087878F918C7E7E847B7A8082876C687876
:10563000858B72717F77768185817882807A878B7E
:10564000737B9194816B80888E816B788F887D7855
:10565000808280797F7E8A8076787C868379727B6F
:10566000868175787578757F897F73777B898B7C68
:10567000808D8C827C8084848C857580837A737D18
:105680007E7D69757A847A737A8182798B938C7E38
:105690008187938C7E788693877F7F768693796ED9
:1056A0008586787E827A77787B807E86877F717820
:1056B00088837375818B85778481777D8D8F8681D3
:1056C0007F7D888D7E6F7A8D888A7979858D7A71D4
:1056D0007F84737B817C7D7A7181828581747881FE
:1056E0008481797D81827A7E898D7F7378839078B9
:1056F000677F88897E747B958E7E747D86877C76B5
:10570000858473747E89957072888D7D827B818992
:10571000857F71818586766F7D897673717D8772CD
:105720006F807E8C917C8080898E85858392857840
:105730008988857B828284757882767378766B76A9
:10574000787A7D7D7987747F858A878F868E90862B
:10575000868780828E7B757A887F80746D727B826B
:105760008C857F7B7B7E807F828A8B7E7277908523
:1057700073818780807E7A7F8E877D787E89918411
:105780007C87827E7E84847979828C78747F878519
:105790007784817A7C847B7A858A7E767888937B0D
:1057A0007A7E847682867C768185837A727E857E17
:1057B00080787A7D7E89857678858C7677888E76F6
:1057C000787D7E7F7F7C7E7E777B85756F7E87751B
:1057D000767C8885848482817C8689838081817EB1
:1057E0007484877C7584897A747B8F867B788D8FAF
:1057F0007B757F847E758686777F847B777A8085CC
:1058000073788A857875867F7E838F8B7D75948C7F
:1058100078878C7C7D838A83707481877A687E7EAA
:10582000767E7E7D77738F8E79807D808881848C73
:10583000717986847C7C857B767C7F7A7B748A898F
:10584000806F72888482858274818A9C827D819037
:10585000877C888B817B8A828373758B8274717C51
:105860007A717C8874757E7B7E8286867B74879253
:10587000886B7F998F827F827C7D8B928070708312
:105880008581867D7D7F8383857884858A726B831D
:10589000847C7F7D7181777D82858481717284991A
:1058A0008A757781867D7B82838881778A80718300
:1058B0008D877D7F777F86857C756B8190787482FC
:1058C00089846F788C887D82887C798A86787D82CD
:1058D0008B71738588797E7F867B6C7E9788707EDE
:1058E0008C8177808B87787F88807F8C82837E7D98
:1058F000877E767982756876816F767E8D826E7806
:10590000878B85877D81808982857E858C7E728468
:1059100081837E787A7B7C7B898B807784807F848F
:105920008581716F7F817D827F817C7887907C7794
:10593000858C75737E827F8880817073938F887F5A
:105940007F7E807C909D757086887C7379857F7260
:105950007A837B7988868482797A7A87928C706F51
:10596000868A7A767E898475797C837B7F7C867E45
:10597000768084838A847176828D8C7A7C85767336
:10598000818C86807D818677808D847B8478797F09
:10599000868A897173828384827D837D7A7B7D721E
:1059A00079867E727386807E7B858779738B988FEC
:1059B0008182888781878185817F74787E7E837AE2
:1059C000748380717A827F7E7080867976808B8204
:1059D0006F7C898788838185828C847A888B857C9B
:1059E000737C877D707B7E767B7D777C80787A7A0E
:1059F0006E828A837F7F827F7C848E8B867E818489
:105A0000847F858D887D7D8480817F7A727B7F8194
:105A10007A83868579727F7F847E7B8382787F829A
:105A2000848F827A7E868C85828285817977888D43
:105A300087747A8A77767E82807876777C8481779D
:105A40007E808B7B78898D838377818B887F888329
:105A500080757A818179767E7B807470757B7B8B93
:105A6000806F798484897C757E7F80828981827E43
:105A70008187867F7C818D887D777E888F786F791E
:105A80008484757A797371827C82827C7882888E34
:105A90007C777F8E82817C7B847F8680827C7E8502
:105AA00087807C81808189857C80868875777982F2
:105AB0008D7D727C867980807E808075827F7D83FB
:105AC0007E7F827B7F90838087828686857D8885A6
:105AD000857C7C7F7F7A7B84777882787589787EF5
:105AE000806F7A86897F81748181847A7D818A86BC
:105AF000817E848084897A80837E8A8E807F817A89
:105B00008C7F768187818177768279727F877677BD
:105B100073817E7C7A7E737A887F7E828A827977AF
:105B20008D8E838591847E837986907C74807E853A
:105B30007C6F778E807A7A7D84827F7B7C7B7F848A
:105B400084827A7D82827F7979818B7E74777C8270
:105B50008A7B7A7C807A8184877A757F8987807E48
:105B60008B93827A7E878B867A7E84817D7E817D0F
:105B70007D75787C7C737E81817E7575868F7F7D57
:105B8000818A7D76808B8C846D7C8B86797F7F7B10
:105B90008179767F817A807A807C7A8198877A6B26
:105BA00080948F7A7C80878181807F7F84808075DC
:105BB000788075827F716B7A808A7777817D797F33
:105BC0007F8485898980818088828F8B7A7B878496
:105BD0008C8A757E86807985828B8074757E7A77D3
:105BE000767B817A73767179897E7B7A7C80818AF3
:105BF0008A8285888A84908B898A867D7C87858045
:105C0000877F74767A8588746C7D7C807979827FD1
:105C100072777D7A8081827B7976838A828289839A
:105C200086868D82808E8B777D8183838481817A45
:105C3000807E777877797F73787775828580717BBE
:105C40008982818380858085877F817E7E86897831
:105C5000797F83807F79797A7C7E86837C797C8367
:105C6000827C818478858A87828C857E7C817F890D
:105C70007775897B74727B8C83787F75738F847959
:105C80007E868085858482817B8988848189828AD9
:105C90007D7F88827F858080837E7279827A727E22
:105CA0007B857A6E848676787A8392787785888DFC
:105CB0008B76748B8F887E7E7A857F8681767982DB
:105CC000817B7B787C7B827F807B778086837F7FF4
:105CD000738182838577747F7F81797F8475738AEE
:105CE000897271858881797D7E868A8D807D7C7FB1
:105CF000838386847B6F898D7F71787B89867B7BAC
:105D0000798481818081747B7E87877E737C8585A1
:105D10007F74818E7E767F8380827C7C8582797A97
:105D20008489817C8186817B898D88817F8385843C
:105D30007F7B787F8384727C7E7F7B7A7B7D6B7BAD
:105D40008C8075777A8C8B798282818D7C7C888A35
:105D5000847C7289917D7581838978718288777757
:105D60008886797C7E7D89887A817F8F867878891C
:105D7000858280747F81797E897B77777D878A723F
:105D800080867C88827C84827785837F8284797B0D
:105D9000838A817B7D8A94827A7785897E7C7879F3
:105DA0007E7F72787F817A7A8286817177888E7B16
:105DB0007B828B8B797F7B7C80847F7E84837A84DB
:105DC00088897F7A8385867D7F7F807A7B7A7378E6
:105DD000887D757A8681767B837E888473828B7DCD
:105DE0007E8A857D7E7E838582857E7D8285847D9B
:105DF000777E7F7472837D787B7A7F7B7D7E7B82EA
:105E000082848178858A847C7A828B787A92837482
:105E10007D888579757D8A8A766E7E83847B786BB2
:105E2000748A7C66828D7F74757D8A8484878D8771
:105E30007F878E8A8E86807E7A84857B89807B812F
:105E400083807E787D767B7F7677747C80737D71AE
:105E5000778F87828A837D8B8C8985868B8A8B83DB
:105E60007B877F8181797B7C7D898581787088873C
:105E7000777778807B77807A767B79887A6C79827D
:105E8000818283767C848B8E7E7F888A7C888D86D7
:105E900084848C8277767E8788757076797B7F792B
:105EA0007578747578858C786F7A8E9376748B8913
