:10000000D4C00000A6C20000EEC00000ECC000009A
:10001000EAC00000E8C00000E6C00000E4C0000044
:10002000E2C00000E0C000000C94150CDCC0000031
:1000300065C30000D8C00000D6C00000D4C00000D6
:10004000D2C00000AAC20000CEC00000CCC0000098
:10005000CAC00000C8C00000C6C00000C4C0000084
:10006000C2C00000C0C00000BEC00000BCC0000094
:10007000BAC00000B8C00000B6C00000B4C00000A4
:10008000E2C20000B0C00000AEC00000ACC0000082
:10009000AAC00000A8C0000012011001FF0000105B
:1000A000EB03042100020102030109022000010107
:1000B00000C0320904000002FF00000007058202B0
:1000C00040000A0705020240000A040309040C0369
:1000D000410054004D0045004C0000001803410051
:1000E0005600520049005300500020006D006B0084
:1000F0004900490000001C0330003000300032008D
:10010000300030003000350033003600350030005C
:10011000000000001201100102000010EB034B2050
:1001200001000102DC0109023E00020100803209E7
:100130000400000102020100052400100104240251
:10014000060524060001070582030800FF090401D3
:1001500000020A00000007050402100001070583E1
:100160000210000104030904180344006500610043
:100170006E002000430061006D00650072006100A8
:10018000000026034C0055004600410020005800A6
:1001900050004C00410049004E0020004200720017
:1001A0006900640067006500000011241FBECFEFE6
:1001B000D0E2DEBFCDBF11E0A0E0B1E0E0E8F3E2C5
:1001C00000E00BBF02C007900D92AC37B107D9F722
:1001D00012E0ACE7B1E001C01D92AA3AB107E1F725
:1001E000D8D00C94BE110CCF95B180959064892322
:1001F00085B90895FC012FB7F894718360837383E8
:1002000062837583648360587F4F7783668380E859
:1002100090E091878087138612862FBF08958EB352
:10022000843069F4A1D382E08093E9008091E800F2
:1002300082FF05C080E4D8DF88D280E0D5CF089562
:100240000F931F93CF93DF938EB3843009F068C070
:100250008FB7F89420918C0230918D028FBF8091DE
:100260008A0290918B022817390709F180E091E00A
:100270000E944E1197FD1BC0E2E8F2E0A081B1811F
:100280008C9380819181019691838083268137812F
:100290008217930721F484819581918380832FB7FE
:1002A000F894828593850196938782872FBF8FB7B5
:1002B000F894C0919802D09199028FBFA89903C079
:1002C000C93CD10548F1A89A0EE812E023C0E0919C
:1002D0009002F091910280E091E060810E94E5102F
:1002E0008823D1F4F80182819381019693838283DC
:1002F000268137818217930721F484819581938326
:1003000082832FB7F894828593850197938782879C
:100310002FBF21972097D9F680E091E00E943F11EE
:10032000DF91CF911F910F91089584B7877F84BF8C
:1003300088E10FB6F89480936000109260000FBEC1
:1003400090E080E80FB6F89480936100909361008C
:100350000FBEE5D0269A2E9A0E94FF0B85B78068C3
:1003600085BF85B7806885BF8F9A8FE19EE401972E
:10037000F1F700C000008FB18095881F8827881F83
:1003800080937C0185B78F7785BF85B78F7785BFD1
:100390000895CBDF80E428DF789480917C01882366
:1003A00011F44EDF01C03BDF0E94D60FF6CF1F9342
:1003B00080917C018823A1F480E091E00E94941058
:1003C000182F117085E085BD82E892E06DE771E03D
:1003D00011DF8EE892E06DEF71E00CDFA0D008C075
:1003E00082E060E842E30E945A0B182F11709CD102
:1003F000112311F080E001C080E4F6DE1F91089522
:1004000080917C01882321F480E091E00C94E80F36
:10041000089580E4E9CE80E4E7CEFC0121893289A9
:100420004389548960E072E18AE790E00E9482117A
:1004300021503040309389002093880030939900F8
:1004400020939800089520917C01222309F437C05D
:1004500000C0292F3327223029F0233041F02130EA
:1004600029F51FC080E290E0EAEAF0E023C0813085
:1004700059F0813028F0823059F08330B9F40CC043
:10048000EAECF0E084910BC0EEECF0E0849107C060
:10049000ECEDF0E0849103C0E6EFF0E0849190E0B1
:1004A00009C082E190E0E8E9F0E004C080E090E07B
:1004B000E0E0F0E0DA011196FC93EE930895292F25
:1004C0003327223029F0233041F02130F9F419C0CC
:1004D0008EE390E0E6E2F1E01DC0813049F081302A
:1004E00018F0823099F408C0E4E6F1E0849107C086
:1004F000E8E6F1E0849103C0E2E8F1E0849190E065
:1005000009C082E190E0E4E1F1E004C080E090E025
:10051000E0E0F0E0DA011196FC93EE930895599A29
:10052000519A589A22E02093690081E08DBB80E4C3
:1005300093E0909389008093880090939900809332
:10054000980020936F002093710089E080939100C0
:1005500008951F920F920FB60F9211248F939F93BD
:1005600088E080937F028091880090918900969521
:100570008795909581959F4F9093850080938400F7
:10058000489904C01DBA89E0809381009F918F91A2
:100590000F900FBE0F901F9018951F920F920FB6DD
:1005A0000F920BB60F9211242F933F938F939F932B
:1005B000AF93BF93EF93FF9389B1817020917F0236
:1005C000222371F0909180029695909380022150A1
:1005D00020937F02882341F190689093800224C089
:1005E0001092810091E09CBB9DBB8823E9F0EEE86E
:1005F000F2E0A081B181809180028C938081918111
:10060000019691838083268137818217930721F495
:1006100084819581918380832FB7F8948285938517
:100620000196938782872FBFFF91EF91BF91AF9182
:100630009F918F913F912F910F900BBE0F900FBE06
:100640000F901F9018951F920F920FB60F920BB636
:100650000F9211242F933F938F939F93AF93BF9348
:10066000EF93FF9380917D02882361F090917E0249
:1006700090FF02C0599801C0599A969590937E02B6
:1006800081502BC080917F02882349F52FB7F894C1
:1006900080918C0290918D022FBF009701F15998A3
:1006A000E2E8F2E0A281B3812D91B383A283868137
:1006B0009781A817B90721F4848195819383828358
:1006C0003FB7F894828593850197938782873FBFD0
:1006D000822F809580937E0289E080937D02FF9136
:1006E000EF91BF91AF919F918F913F912F910F907B
:1006F0000BBE0F900FBE0F901F9018951F920F9278
:100700000FB60F9211248F9381E08ABD88E10FB656
:10071000F89480936000109260000FBE8F910F904C
:100720000FBE0F901F901895EAE7F0E087EA8083EC
:100730008298AEE7B0E08C9184608C9382E48093E1
:100740007C0080818064808302C10F931F93DF93BC
:10075000CF930F92CDB7DEB71091F1001ABC2EE007
:1007600088E190E00FB6F894A895809360000FBEE2
:100770002093600080916000806480936000163058
:1007800009F45FC0173048F4113089F0113008F4D3
:100790009AC0143008F097C027C0103509F48BC0F8
:1007A000113509F486C01A3009F08DC070C08091EF
:1007B000E8008B778093E80082E08093E9008091E5
:1007C000EC0081608093EC001093F1001092F10036
:1007D0008AE08093F10088E191E06AE070E040E017
:1007E00050E00E94DA0C88C00091F100123019F438
:1007F0006091F10001C060E08091E8008B77809308
:10080000E80082E08093E9008091EC0081608093B1
:10081000EC001093F100802F6983C2D069811230FF
:1008200039F481FF0CC01092F100802FC9D064C050
:1008300080FF05C01092F100802FBAD05BC080EC21
:1008400059C08BE992E064E070E040E050E00E9423
:100850007A0D8091E8008B778093E80082E08093A6
:10086000E9008091EC0081608093EC0080919B0214
:1008700090919C02A0919D02B0919E02B7FF03C08F
:1008800081E080939A0286E08093F1000FC080910E
:10089000E8008B778093E80082E08093E900809104
:1008A000EC0081608093EC001093F1001092F10055
:1008B00023C0BED126C0ECD124C08091E8008B7744
:1008C0008093E80029D78091F2009091F300803462
:1008D000910599F38091E8008B778093E80082E09E
:1008E0008093E9008091EC0081608093EC0010938C
:1008F000F10089EC8093F1008091E8008E7780937D
:10090000E80088E10FB6F8948093600010926000D0
:100910000FBE02D782E08093E9008091EC008E7FC9
:100920008093EC000F90CF91DF911F910F9108956C
:10093000E3E2F1E09081891741F091E0EE33F907AD
:1009400011F03396F7CFE0E0F0E0CF010895CF93B8
:10095000DF938EE9EDDFEC0180E090E00E94A411CE
:100960008A83DF91CF91089584E9E2DFEAE7F0E03E
:1009700020812061208340917800509179009A0174
:10098000220F331F66E0440F551F6A95E1F7240FCD
:10099000351F232F332726952695FC0122830895A2
:1009A000C7DF009719F0FC018181089580E0089568
:1009B000BFDF009719F0FC018281089580E008955F
:1009C0001F93DF93CF930F92CDB7DEB7182F6983B4
:1009D000AFDFFC016981009739F062831E3921F491
:1009E00080E090E00E94AC110F90CF91DF911F91B9
:1009F00008959B01AC01652F922F272F782F822F0E
:100A000008959C01832F922F0895AF92BF92CF92A9
:100A1000DF92EF92FF920F931F93DF93CF93CDB7A7
:100A2000DEB7C850D1400FB6F894DEBF0FBECDBFC1
:100A3000CE01019668E070E040E050E00E942A0D8F
:100A40006B817C818D819E81D4DF6B837C838D83E0
:100A50009E838F819885D5DFBC0198878F83CE01D7
:100A6000099640E050E0F6D78F81988509968F73FC
:100A70009070009731F48091E8008B778093E800C4
:100A80004BD68091E8008B778093E80082E08093DA
:100A9000E9008091EC0081608093EC0080918102FC
:100AA0008823A1F5298121502630A0F430E0F901F6
:100AB000EF5AFE4F9081F901E95AFE4F8081F9010A
:100AC000E35AFE4F60812D593E4FF90120812223C8
:100AD00099F003C066E283E29EE2EB80FC800D8128
:100AE0001E81AF80B884492F2A8199E0C92ED12C6C
:100AF000CC0EDD1E02D412C02B813C814D815E8163
:100B0000892FBA01A9012985D4D308C04F815885FE
:100B10008B819C81BE01675F7F4F76D5882311F062
:100B200080E001C083E090E59093F10094E0909321
:100B3000F1008093F1008091E8008E778093E800C7
:100B4000C85FDE4F0FB6F894DEBF0FBECDBFCF91AA
:100B5000DF911F910F91FF90EF90DF90CF90BF90AA
:100B6000AF900895DF93CF93CDB7DEB7C750D14094
:100B70000FB6F894DEBF0FBECDBFCE01019667E081
:100B800070E040E050E066D76A817B818C819D8176
:100B900030DF6A837B838C839D838E819F8131DFED
:100BA0009F838E838091E8008B778093E80082E0BA
:100BB0008093E9008091EC0081608093EC0080914B
:100BC00081022E813F81AE01485F5F4F882331F45F
:100BD0006A817B818C819D8132D305C08A819B8112
:100BE000BA01A901E5D4882311F080E001C083E0B7
:100BF00090E59093F10095E09093F1008093F100DF
:100C0000882339F46E817F81CE01089640E050E060
:100C1000D1D68091E8008E778093E800C95FDE4FDF
:100C20000FB6F894DEBF0FBECDBFCF91DF91089510
:100C3000DF93CF930F92CDB7DEB7CE01019661E07F
:100C400070E040E050E006D78091E8008B77809319
:100C5000E80082E08093E9008091EC00816080935D
:100C6000EC0089818093810281E58093F100898184
:100C7000813011F080E001C080EC8093F100809120
:100C8000E8008E778093E8000F90CF91DF91089570
:100C9000DF93CF93CDB7DEB729970FB6F894DEBFB9
:100CA0000FBECDBF8091F100843009F494C085302F
:100CB00048F4823089F1833008F04AC0813009F06D
:100CC00031C10AC0863009F48AC0863008F485C074
:100CD000873009F027C1CBC08091E8008B778093E3
:100CE000E80082E08093E9008091EC0081608093CD
:100CF000EC0080918102882311F422D205C0823059
:100D000011F40DD401C080E090E59093F10091E0E2
:100D10009093F1008927FFC09091E8009B77909312
:100D2000E8008093E9008091EC0081608093EC0002
:100D300080918102882311F445D201C02ED480E530
:100D40008093F10082E08093F1001092F100E5C001
:100D5000CE01059665E070E040E050E07BD66E8104
:100D60007F818885998545DE6E837F838887998713
:100D70008091E8008B778093E80082E08093E9001F
:100D80008091EC0081608093EC0080918102ED8184
:100D9000882379F4E150E83028F4F0E0E75BFE4F77
:100DA000808101C080E04E815F81688579850CD3A8
:100DB00008C0E13011F480E101C084E16E817F81DF
:100DC0005ED4882311F080E001C083E090E5909329
:100DD000F10093E09EC019DEA5C0C4DEA3C0CE0121
:100DE000059661E070E040E050E034D68091E80084
:100DF0008B778093E80082E08093E9008091EC009B
:100E000081608093EC0080918102882391F4ED81D0
:100E1000E150E23028F4F0E0E759FE4F808101C054
:100E200088E7BE016F5F7F4FD8D1882321F080E033
:100E300003C081E001C083E090E59093F10096E06B
:100E40009093F1008093F100882309F066C08981B6
:100E50009A81AB81BC81CD01AA27BB278093F10089
:100E600089819A818093F100892F992754C08091BC
:100E7000F100833061F1843028F4813041F0823018
:100E8000B1F51AC0843041F1853089F52AC020912E
:100E9000F100B22F2091F100A22F2091F100922FAA
:100EA0002091F100822F8093410190934201A09301
:100EB0004301B093440119C02091F100922F209179
:100EC000F100822F90934601809345010EC08091DE
:100ED000F1008093470109C08091F100809348019F
:100EE00004C08091F1008091F10080E001C081E0B8
:100EF0009091E8009B779093E80092E09093E9004E
:100F00009091EC0091609093EC0090E59093F1004B
:100F100097E09093F1008093F1008091E8008E7744
:100F20008093E80029960FB6F894DEBF0FBECDBFC0
:100F3000CF91DF9108954D99FECF4D9BFECF4D99F6
:100F4000FECF5B9A539A8091C9008F7E8093C9002F
:100F50008091C90088608093C90081E080939F02DE
:100F600008958091C80086FFFCCF8091C8008064FE
:100F70008093C8008091C900877F8093C9008091C9
:100F8000C90080618093C90053985B9810929F02BA
:100F9000089580919F02882309F0E3DF80EC80931D
:100FA000C8001092C9001092CA008AB1877D8AB920
:100FB0008BB1837D8BB9089580919F02882309F0BE
:100FC000D0DF8091C800806C8093C8001092C90067
:100FD0001092CA008AB1877D8AB98BB1837D8BB9A3
:100FE00024982C980895DF93CF930F92CDB7DEB756
:100FF00090919F02992319F489839DDF89819091B3
:10100000C80095FFFCCF9091C80090649093C800F1
:101010008093CE000F90CF91DF91089580919F0231
:10102000882309F09EDF8091C80087FD03C08AB540
:101030008823C9F3A8958091CE00089580919F02DE
:10104000882309F478DF8CE04D99FECF4D9BFECFCD
:101050004D99FECF8150C1F7089510929F02249AB6
:101060002C9882E08A95F1F700C08AB188628AB92B
:1010700052988FE090E09093CD008093CC0088E070
:101080008093C9008FE68093CA00D8DFD7CF109233
:101090009F028AB188628AB952985B9A82E08A95E7
:1010A000F1F700C08FE090E09093CD008093CC00EA
:1010B00088E08093C9008FE68093CA00BFDFBECF6F
:1010C000EF92FF920F931F937B018C01862F8BDF92
:1010D0008F2D89DF802F87DF812F85DF1F910F9173
:1010E000FF90EF900895682F70E080E090E02091ED
:1010F0004101309142014091430150914401622BE2
:10110000732B842B952BDCCF80E86DDF87DF9AB5BE
:10111000992321F481FFF8CF81E0089580E00895BC
:101120008BE661DF8FE0DFDF80E25DDF77DF9AB59E
:10113000992321F487FDF8CF81E0089580E0089598
:10114000CF92DF92EF92FF920F931F93DF93CF9393
:10115000CDB7DEB728970FB6F894DEBF0FBECDBF70
:1011600096DF81EC40DF89E53EDF82EC3CDF87E003
:101170003ADF80EE38DF8E01075F1F4F7E01089453
:10118000E11CF11C6701D601EBE6F1E088E001907B
:101190000D928150E1F7F80182918F0124DF0E1545
:1011A0001F0589F7B1DF28960FB6F894DEBF0FBE92
:1011B000CDBFCF91DF911F910F91FF90EF90DF9006
:1011C000CF900895A1DF81EC0EDF80E00CDF81E895
:1011D0000ADF24DF8823B9F7DCCE1F93CF93DF9398
:1011E000182FEB019DDF882329F18CE4FCDE8AE0D7
:1011F0007ADF812FF8DE8CE4F6DE8BE074DF81E0AD
:10120000F2DE82DF8823B1F08BDF882399F08BE652
:10121000EADE84E068DF80EAE6DE82E0E4DE84E2A3
:10122000E2DEFCDE8883FADE8983F8DE8A839AB503
:1012300081E0911180E0DF91CF911F910895CF92CD
:10124000DF92EF92FF920F931F93CF93DF936B0187
:101250007C018A01E90164DF882309F18CE4C3DEA3
:101260008AE041DF83E4BFDE8BE6BDDEC701B60165
:1012700027DF80EAB8DE9E012150822FB4DE84E2AF
:10128000B2DE04C0CBDEF80181938F01209721F0FC
:101290008AB521978823B1F39AB581E0911180E056
:1012A000DF91CF911F910F91FF90EF90DF90CF9042
:1012B0000895CF92DF92EF92FF920F931F93D82E53
:1012C0007A018B01C22E2CDF882379F08CE48BDE2F
:1012D0008AE009DF8D2D87DE8CE485DEC801B70149
:1012E000EFDE8C2D80DE81E001C080E01F910F9148
:1012F000FF90EF90DF90CF9008957F928F929F9212
:10130000AF92BF92CF92DF92EF92FF920F931F9313
:10131000CF93DF93882E962E742EE601C22E20FFE7
:1013200010C0FEDE882309F440C08CE45CDE8AE055
:10133000DADE892D58DE8CE456DE8BE0D4DE81E0E7
:1013400052DEA114B104E9F0EBDE882371F18CE4E4
:101350004ADE8AE0C8DE882D46DE8BE644DEC80120
:10136000B701AEDE80EA3FDE8A2D81503CDE84E6A6
:101370003ADE899138DE0894A108B108A114B104BD
:10138000C1F7C1FE10C0CCDE882379F08CE42BDEDF
:101390008AE0A9DE872D27DE8CE425DEC801B701AF
:1013A0008FDE80E020DE81E001C080E0DF91CF9120
:1013B0001F910F91FF90EF90DF90CF90BF90AF9073
:1013C0009F908F907F900895DF92EF92FF920F93FE
:1013D0001F93D82E7A018B01A3DE882309F459C00C
:1013E0008D2D803431F48CE4FEDD8AE07CDE80E4F7
:1013F0003AC08D2D803309F03DC08CE4F4DD8AE0E5
:1014000072DE86E3F0DD8CE4EEDD8BE06CDE81E005
:10141000EADD86DE882309F43CC08CE4E4DD8AE062
:1014200062DE83E3E0DD8BE6DEDDC801B70148DE86
:1014300080EAD9DD809145018150D5DD84E6D3DD98
:1014400010E003C080E0CFDD1F5F212F30E08091EE
:1014500045019091460128173907A0F38CE4C3DDBC
:101460008AE041DE80E3BFDD8CE4BDDD8BE03BDE66
:1014700081E00CC08CE4B7DD8AE035DE8D2DB3DD74
:101480008CE4B1DDC801B7011BDE80E0ACDD3CDEE1
:1014900001C080E01F910F91FF90EF90DF900895C1
:1014A000282F2F70206990E080739070880F991F0B
:1014B000822B99CDEF92FF92CF93DF93EC0188E6D8
:1014C00092DD7E018C2F8FDD89E68DDD8F2D8BDD0A
:1014D000DF91CF91FF90EF90089580E884DD9EDD4D
:1014E0009AB5992321F481FFF8CF81E0089580E037
:1014F000089580914801282F2F70206190E080731B
:101500009070880F991F822B6EDD88DD9AB5992324
:1015100021F487FDEECF81E0089580E00895CF9219
:10152000DF92EF92FF920F931F93DF93CF93CDB78C
:10153000DEB728970FB6F894DEBF0FBECDBF8DDDA6
:1015400082EC51DD87E04FDD80EE4DDD8E01075FDF
:101550001F4F7E010894E11CF11C6701D601E3E7EF
:10156000F1E088E001900D928150E1F7F80182915D
:101570008F0139DD0E151F0589F7AFDF28960FB6ED
:10158000F894DEBF0FBECDBFCF91DF911F910F91B9
:10159000FF90EF90DF90CF9008959FDF80EC23DDE8
:1015A00080E021DD81E81FDD39DD8823B9F704CD36
:1015B000EF92FF920F931F93CF93DF938C01EB0178
:1015C0007A0197DF8823C1F08091470169DF80E0CD
:1015D0000ADDC8016FDF04C084E205DD1FDD8993E9
:1015E000E114F10431F08AB50894E108F108882388
:1015F00099F39AB581E0911180E0DF91CF911F912D
:101600000F91FF90EF900895EF92FF920F931F9329
:10161000CF93DF938C01EB017A016BDF882339F1E3
:10162000E0FE08C0FE01EE0DFF1D8FEF80830894E1
:10163000E11CF11C8091470133DF8DE1D4DCC8014E
:1016400039DF10C056DF882391F084E6CCDC888136
:10165000CADC84E6C8DC89812296C5DC8EEF9FEF68
:10166000E80EF91EE114F10469F781E001C080E0A1
:10167000DF91CF911F910F91FF90EF9008951F93ED
:10168000CF93DF93182FEB0134DF882371F0809123
:10169000470106DF812FA7DCCE0181600BDF80E6EA
:1016A000A2DC80E0A0DC25DF01C080E0DF91CF91EB
:1016B0001F9108958093E900EBEEF0E08081816056
:1016C0008083EDEEF0E010826093EC004083809127
:1016D000EE00881F8827881F08958091A20287FF47
:1016E00011C003C08EB38823B1F08091E80082FF5F
:1016F000F9CF8091E8008B778093E80008958EB34E
:10170000882349F08091E80080FFF9CF8091E800BC
:101710008E778093E80008958091E4009091E50031
:1017200044E62091EC0020FF25C02091E80020FD38
:1017300015C02EB32223A1F02530A1F02091EB009B
:1017400025FD12C02091E4003091E50028173907EB
:1017500041F3442359F04150C901E3CF80E008959B
:1017600082E0089583E0089581E0089584E008957B
:1017700080E008952091E80022FFDBCFF9CF0F939E
:101780001F93CF93DF9344D04BD0C8EDD0E0888136
:101790008F77888388818068888388818F7D88831C
:1017A000E7EDF0E080818068808319BC1EBA10925A
:1017B000A00200EE10E0F80180818B7F8083888199
:1017C0008160888380E060E042E174DFE1EEF0E078
:1017D00080818E7F8083E2EEF0E080818160808373
:1017E000808188608083F80180818E7F80838881FA
:1017F00080618883DF91CF911F910F910895E7ED6C
:10180000F0E080818160808381E08093A102B7CF86
:10181000E8EDF0E080818C7F80831092E2000895F3
:101820001092DA001092E10008951F920F920FB605
:101830000F920BB60F9211242F933F934F935F9308
:101840006F937F938F939F93AF93BF93EF93FF9388
:101850008091E10082FF0AC08091E20082FF06C011
:101860008091E1008B7F8093E1009FD38091DA002B
:1018700080FF1DC08091D80080FF19C08091DA00E0
:101880008E7F8093DA008091D90080FF0CC08CE0BD
:1018900089BD8EE089BD09B400FEFDCF81E08EBB1D
:1018A0000E94090204C019BC1EBA0E940B0280915A
:1018B000E10080FF17C08091E20080FF13C080919B
:1018C000E2008E7F8093E2008091E200806180934D
:1018D000E2008091D80080628093D80019BC85E036
:1018E0008EBB63D38091E10084FF2CC08091E20025
:1018F00084FF28C08CE089BD8EE089BD09B400FE5C
:10190000FDCF8091D8008F7D8093D8008091E10039
:101910008F7E8093E1008091E2008F7E8093E200D1
:101920008091E20081608093E2008091A002882390
:1019300021F48091E30087FF02C084E001C081E0D0
:101940008EBB33D38091E10083FF21C08091E20000
:1019500083FF1DC08091E100877F8093E10082E0DA
:101960008EBB1092A0028091E1008E7F8093E100F7
:101970008091E2008E7F8093E2008091E20080619E
:101980008093E20080E060E042E194DE0ED3FF91BC
:10199000EF91BF91AF919F918F917F916F915F91E7
:1019A0004F913F912F910F900BBE0F900FBE0F9054
:1019B0001F901895BF92CF92DF92EF92FF920F93F4
:1019C0001F93CF93DF937C01EB018A01A5DEB82E34
:1019D0008823A9F50115110539F0F801208131811D
:1019E000C21BD30BE20EF31ECC24DD2424C0809155
:1019F000E80085FD17C08091E8008E778093E800AD
:101A0000D5D20115110551F0F801808191818C0D1D
:101A10009D1D9183808325E0B22E11C07DDE882339
:101A200051F00CC0F70181917F018093F100219763
:101A30000894C11CD11C2097D1F601C0B82E8B2D63
:101A4000DF91CF911F910F91FF90EF90DF90CF909A
:101A5000BF900895BF92CF92DF92EF92FF920F93C3
:101A60001F93CF93DF937C01EB018A0155DEB82EE3
:101A70008823A9F50115110539F0F801208131817C
:101A8000C21BD30BE20EF31ECC24DD2424C08091B4
:101A9000E80085FD17C08091E8008B778093E8000F
:101AA00085D20115110551F0F801808191818C0DCD
:101AB0009D1D9183808345E0B42E11C02DDE8823C7
:101AC00051F00CC08091F100F70181937F012197C3
:101AD0000894C11CD11C2097D1F601C0B82E8B2DC3
:101AE000DF91CF911F910F91FF90EF90DF90CF90FA
:101AF000BF900895BF92CF92DF92EF92FF920F9323
:101B00001F93CF93DF936C01EB017A0105DEB82EB2
:101B10008823D9F58E01015010400C0D1D1DE114D4
:101B2000F10439F0F70120813181C21BD30B021B74
:101B3000130BCC24DD2425C08091E80085FD17C05F
:101B40008091E8008B778093E80030D2E114F104B3
:101B500051F0F701808191818C0D9D1D91838083CF
:101B600055E0B52E12C0D8DD882359F00DC0809104
:101B7000F100F80180830150104021970894C11CA6
:101B8000D11C2097C9F601C0B82E8B2DDF91CF91C3
:101B90001F910F91FF90EF90DF90CF90BF9008952D
:101BA000FC018091A8029091A9028617970718F46A
:101BB000BC0180E037C061157105D9F78091E8005C
:101BC0008E778093E800F5CF9EB3992309F43FC048
:101BD0009530C9F19091E80093FD37C09091E800ED
:101BE00092FD2BC09091E80090FF1CC02091F20064
:101BF0003091F30007C081918093F10061507040F3
:101C00002F5F3F4F6115710519F02031310598F3B1
:101C100081E02031310509F080E09091E8009E7765
:101C20009093E8006115710579F6882369F605C07F
:101C30008EB3882361F0853061F08091E80082FFE7
:101C4000F7CF80E0089583E0089581E0089582E071
:101C5000089583E008952091A8023091A9022617E3
:101C6000370718F4B90140E039C061157105D9F79B
:101C70002091E8002E772093E800F5CF2EB32223A1
:101C800009F441C02530D9F12091E80023FD39C085
:101C90002091E80022FD2DC02091E80020FF1EC009
:101CA0002091F2003091F30009C0FC01449140936F
:101CB000F1000196615070402F5F3F4F6115710533
:101CC00019F02031310588F341E02031310509F068
:101CD00040E02091E8002E772093E800611571051F
:101CE00069F6442359F605C08EB3882361F0853028
:101CF00061F08091E80082FFF7CF80E0089583E0F3
:101D0000089581E0089582E0089583E008950F9397
:101D10001F93DF93CF93CDB7DEB7AC970FB6F89490
:101D2000DEBF0FBECDBFE2EAF2E08091F100819309
:101D300022E0EA3AF207C9F70E9400028091E80027
:101D400083FF1AC18091A2029091A302953009F4F9
:101D50006BC0963040F4913061F1913070F0933067
:101D600009F00AC126C0983009F4D8C0993009F4A6
:101D7000E7C0963009F000C17AC0803809F4FCC091
:101D8000823809F0F9C08091A6028F708093E90033
:101D90009091EB001092E9008091E800877F80939A
:101DA000E80081E095FF80E08093F1001092F1005F
:101DB000C0C0882319F0823009F0DEC08F718230F4
:101DC00009F0DAC08091A402882341F52091A6028F
:101DD0002F7009F4D1C02093E9008091EB0080FFBF
:101DE0001DC08091A302833021F48091EB008062BA
:101DF00013C08091EB0080618093EB0081E090E064
:101E000002C0880F991F2A95E2F78093EA0010928A
:101E1000EA008091EB0088608093EB001092E9006B
:101E20008091E800877F88C0882309F0A5C01091C1
:101E3000A4021F770FB7F8948091E800877F809302
:101E4000E8004BDC8091E80080FFFCCF8091E3004C
:101E50008078812B8093E30080688093E3001123D6
:101E600011F083E001C082E08EBB0FBF85C08058B7
:101E7000823008F081C08091A4029091A50223E0F5
:101E80008C3D920791F583E08C838AE28B835FB768
:101E9000F894DE01159680E090E04EE061E2E42FD8
:101EA000F0E060935700E49180FF03C0E295EF708B
:101EB0004F5FEF702E2F30E0EA3018F0295C3F4F73
:101EC00002C0205D3F4F2D933D93019684319105D3
:101ED00031F75FBF8091E800877F8093E800CE01F3
:101EE00003966AE270E05CDE13C06091A602AE0168
:101EF0004F5F5F4F0E942302BC01009709F43CC072
:101F00008091E800877F8093E80089819A81A3DE31
:101F10008091E8008B778093E8002EC0803861F5CF
:101F20008091E800877F8093E8008091A0028093F1
:101F3000F1008091E8008E778093E800CEDB1CC032
:101F40008823D1F49091A4029230B0F48091E800FB
:101F5000877F8093E8009093A002BFDB8091A0026E
:101F6000882321F48091E30087FF02C084E001C050
:101F700081E08EBB0E94D7018091E80083FF0AC0F8
:101F80008091EB0080628093EB008091E800877F76
:101F90008093E800AC960FB6F894DEBF0FBECDBFBD
:101FA000CF91DF911F910F91089508951F938EB3E4
:101FB000882361F01091E9001F701092E900809170
:101FC000E80083FF01C0A3DE1093E9001F9108958C
:101FD000CF93DF93EC018091E80083FFA2C088815A
:101FE00090E02091A6023091A7022817390709F046
:101FF00098C08091A302813269F0823220F480324D
:1020000009F08FC03CC0823209F46AC0833209F003
:1020100088C079C08091A202813A09F082C0809183
:10202000E800877F8093E8008091E80080FFFCCF84
:1020300089899A89AB89BC898093F100292F3A2F2D
:102040004B2F55272093F1009D01442755272093BE
:10205000F1008B2F9927AA27BB278093F1008D8948
:102060008093F1008E898093F1008F898093F10035
:102070008091E8008E778093E8002FDB52C080913A
:10208000A202813209F04DC08091E800877F8093E1
:10209000E8008091E80082FFFCCF2091F100822FC0
:1020A0002091F100922F2091F100A22F2091F100B8
:1020B000B22F898B9A8BAB8BBC8B8091F1008D8B6F
:1020C0008091F1008E8B8091F1008F8B8091E800E0
:1020D0008B778093E80001DBCE010E940D0221C0C6
:1020E0008091A2028132E9F48091E800877F809399
:1020F000E800F3DA8091A4029091A5029E878D8773
:10210000CE01FFD00EC08091A202813251F48091A5
:10211000E800877F8093E800E0DACE016091A402B6
:10212000F0D0DF91CF9108951F93CF93DF93EC010F
:10213000FC013D968BE0DF011D928A95E9F711E0E5
:102140008981181729F4EA81FB819C8180E807C006
:102150008D81181731F4EE81FF81988580E022E0AF
:1021600008C08985181739F5EA85FB859C8580E8C4
:1021700023E0992311F044E001C040E030E066E044
:10218000220F331F6A95E1F761E0882309F460E0CC
:10219000622B28E030E080E003C08F5F220F331F06
:1021A0002E173F07D0F342608295807F482B812F06
:1021B00081DA882329F01F5F173011F681E001C012
:1021C00080E0DF91CF911F910895DF93CF930F921D
:1021D000CDB7DEB7FC018EB38430F1F421893289AA
:1021E000438954892115310541055105A9F08181A3
:1021F0008093E9008091E80085FD0AC08091E800A5
:102200008E778093E800698387DA6981882329F4CF
:102210006093F10080E001C082E00F90CF91DF91E8
:102220000895FC018EB3843021F5218932894389D8
:1022300054892115310541055105D9F081818093DB
:10224000E9008091F2009091F3000097A1F0909145
:10225000E8008091E8008E778093E80095FD0DC03E
:102260005BDA882359F49091E8009E779093E80018
:10227000089582E0089580E0089580E008952EB3E7
:10228000243059F4FC01218932894389548921156C
:1022900031054105510509F0C4CF0895FC018EB305
:1022A000843049F5218932894389548921153105C2
:1022B0004105510501F185818093E9008091E80095
:1022C00082FF1CC08091F2009091F300009721F0F2
:1022D0008091F10090E002C08FEF9FEF2091F2001B
:1022E0003091F3002115310559F42091E8002B7746
:1022F0002093E80008958FEF9FEF08958FEF9FEFF1
:1023000008950895A1E21A2EAA1BBB1BFD010DC062
:10231000AA1FBB1FEE1FFF1FA217B307E407F50795
:1023200020F0A21BB30BE40BF50B661F771F881F71
:10233000991F1A9469F760957095809590959B0107
:10234000AC01BD01CF010895F999FECF92BD81BDC9
:10235000F89A992780B50895262FF999FECF92BD56
:1023600081BDF89A019700B4021639F01FBA20BD5A
:102370000FB6F894FA9AF99A0FBE0895F894FFCF21
:10238000000310000104100001020800000000001A
:1023900000000000000000004156524953505F4DBC
:1023A0004B320080010081010090010091010192F7
:1023B00001119401219803069E0301A10100A403C9
:1023C00000C00100012000333240206830222A3250
:1023D00018242C354C081A2323332323232626368E
:1023E00026262601010100000138391289AB45CDAE
:0C23F000D888FF1289AB45CDD888FF00CB
:00000001FF
